:020000040800F2
:1000000000000220211C0008B51B0008B71B0008D7
:10001000B91B0008BB1B0008BD1B00080000000046
:10002000000000000000000000000000BF1B0008EE
:10003000C11B000800000000C31B0008C51B00080E
:10004000711C0008711C0008711C0008711C00085C
:10005000711C0008711C0008711C0008711C00084C
:10006000711C0008711C0008711C0008711C00083C
:10007000711C0008711C0008711C0008711C00082C
:10008000711C0008711C0008711C0008711C00081C
:10009000711C0008711C0008711C0008711C00080C
:1000A000711C0008711C0008711C0008711C0008FC
:1000B000711C0008711C0008711C0008711C0008EC
:1000C000711C0008711C0008711C0008711C0008DC
:1000D000711C0008711C0008711C0008711C0008CC
:1000E000711C0008711C0008711C0008711C0008BC
:1000F000711C0008711C0008711C0008711C0008AC
:10010000711C0008711C0008711C0008711C00089B
:10011000711C0008711C0008711C0008711C00088B
:10012000711C0008711C0008711C0008711C00087B
:10013000711C00080000000000000000711C000895
:10014000711C0008711C0008711C0008711C00085B
:10015000711C0008711C0008711C0008711C00084B
:10016000711C0008711C0008711C0008711C00083B
:10017000711C0008711C0008711C000800000000C0
:1001800000000000711C00080000000000000000DA
:10019000711C00080000000000000000711C000835
:1001A000000000000000000000000000711C0008BA
:1001B000711C0008711C0008711C0008711C0008EB
:0401C000711C0008A6
:1001C40010B5054C237833B9044B13B10448AFF38D
:1001D40000800123237010BD0C00002000000000EB
:1001E400BC1C000808B5034B1BB103490348AFF31B
:1001F400008008BD0000000010000020BC1C0008A6
:1002040053B94AB9002908BF00281CBF4FF0FF3179
:100214004FF0FF3000F07AB9ADF1080C6DE904CE6F
:1002240000F006F8DDF804E0DDE9022304B07047CD
:100234002DE9F0478C460D460446089E002B51D10B
:100244008A4217466DD9B2FA82FEBEF1000F0BD076
:10025400CEF1200C01FA0EF520FA0CFC02FA0EF78E
:100264004CEA050C00FA0EF44FEA174A250CBCFBC5
:10027400FAF81FFA87F90AFB18CC45EA0C4508FB83
:1002840009F3AB420AD9ED1908F1FF3280F023815A
:10029400AB4240F22081A8F102083D44ED1AA4B219
:1002A400B5FBFAF00AFB105544EA054400FB09F9D2
:1002B400A14509D9E41900F1FF3380F00A81A14571
:1002C40040F2078102383C44A4EB090440EA0840A8
:1002D4000021002E61D024FA0EF4002334607360F0
:1002E400BDE8F0878B4207D9002E54D0002186E860
:1002F40021000846BDE8F087B3FA83F1002940F0F5
:100304008E80AB4202D3824200F2FA80841A65EBFB
:1003140003050120AC46002E3FD086E81010BDE84E
:10032400F08712B90127B7FBF2F7B7FA87FEBEF1DF
:10033400000F34D1EB1B3A0C1FFA87FC0121B3FBED
:10034400F2F8250C02FB183345EA03450CFB08F3CD
:10035400AB4207D9ED1908F1FF3002D2AB4200F2EB
:10036400D1808046ED1AA3B2B5FBF2F002FB105522
:1003740043EA05440CFB00FCA44507D9E41900F149
:10038400FF3302D2A44500F2B8801846A4EB0C0453
:1003940040EA08409DE731463046BDE8F087CEF19B
:1003A400200405FA0EF307FA0EF720FA04F83A0CC3
:1003B40025FA04F448EA0308B4FBF2F14FEA1845BD
:1003C40002FB11441FFA87FC45EA044501FB0CF3C8
:1003D400AB4200FA0EF409D9ED1901F1FF3080F0B7
:1003E4008A80AB4240F2878002393D44EB1A1FFAFF
:1003F40088F5B3FBF2F002FB103345EA034500FB3A
:100404000CF3AB4207D9ED1900F1FF386FD2AB42C0
:100414006DD902383D44EB1A40EA01418FE7C1F13E
:10042400200722FA07F88B4005FA01F448EA03038F
:1004340020FA07FE4FEA134CFD404EEA040EB5FBCA
:10044400FCF94FEA1E440CFB19551FFA83F844EAE1
:10045400054509FB08F4AC4202FA01F200FA01FA7C
:1004640008D9ED1809F1FF3043D2AC4241D9A9F1C2
:1004740002091D442D1B1FFA8EFEB5FBFCF00CFB7C
:1004840010554EEA054400FB08F8A04507D9E418C6
:1004940000F1FF3529D2A04527D902381C4440EA8F
:1004A4000940A4EB0804A0FB02894C45C6464D460E
:1004B40015D312D056B1BAEB0E0364EB050404FA5B
:1004C40007F7CB401F43CC40376074600021BDE880
:1004D400F0871846F8E69046E0E6C245EAD2B8EB63
:1004E400020E69EB03050138E4E72846D7E74046E6
:1004F40091E78146BEE7014678E702383C4445E788
:10050400084608E7A8F102083D442BE7704700BFFE
:1005140038B50E4A0E4B054618784FF47A73B3FB80
:10052400F0F31068B0FBF3F000F088F8044658B913
:100534000F2D09D8024629464FF0FF3000F04AF843
:10054400044B20461D6038BD012038BD0800002042
:10055400000000200400002008B50B4B1A6842F488
:1005640000721A601A6842F480621A601A6842F4CF
:1005740080721A60032000F01BF80020FFF7C8FF08
:1005840001F0D2F9002008BD003C0240034A044BAC
:1005940011681B780B441360704700BF28000020CB
:1005A40000000020014B1868704700BF280000209D
:1005B400074AD36823F4E0631B041B0C43F0BF63B6
:1005C400000243F4003300F4E0600343D360704757
:1005D40000ED00E0174B30B5DC68C4F30224C4F12D
:1005E4000703251D042B28BF0423062D4FF0010506
:1005F40005FA03F303F1FF338CBF033C00241940D5
:10060400A14005FA04F4013C2240002842EA010218
:100614004FEA0212AFBF00F1604000F00F00064B3A
:10062400D2B2A5BF00F56140D2B21A5480F80023BB
:1006340030BD00BF00ED00E014ED00E00138B0F182
:10064400807F0AD2064B074A5860F02182F82310B3
:100654000020072298601A6070470120704700BF8D
:1006640010E000E000ED00E0044B1A6804280CBF21
:1006740042F0040222F004021A60704710E000E025
:10068400704708B5FFF7FCFF08BD00002DE9F04FE7
:1006940085B00B68DFF8A081654ADFF8A09101936B
:1006A40000234FF0010E019C0EFA03FE0EEA04062D
:1006B400B64540F0AA804C6824F01007022F16D1EA
:1006C4004FEAD30A00EB8A0A03F0070BDAF820504A
:1006D4004FEA8B0B4FF00F0C0CFA0BFC25EA0C0CB9
:1006E4000D6905FA0BF545EA0C05CAF820504FEAE6
:1006F400430A0325D0F800B005FA0AF5ED4304F0E7
:10070400030C0BEA050B0CFA0AFC013F4CEA0B0C38
:10071400012FC0F800C011D8876807EA050BCF681D
:1007240007FA0AFC4CEA0B078760476827EA0E0EB3
:10073400C4F300179F4047EA0E074760C7683D406F
:100744008F6807FA0AF73D43C560E5005DD54FF0B1
:10075400000BCDF80CB0D8F84470364D47F4804700
:10076400C8F84470D8F8447007F480470397039F8F
:1007740023F0030707F1804707F59C3703F0030CC8
:10078400D7F808A04FEA8C0C4FF00F0E0EFA0CFEAF
:10079400A8422AEA0E0E3FD005F58065A8423DD056
:1007A40005F58065A8423BD005F58065A84239D09F
:1007B40005F58065A84237D0484537D005F5006572
:1007C400A84214BF0725062505FA0CF545EA0E05CF
:1007D400BD601568F74314F4803F0CBF3D403543BA
:1007E4001560556814F4003F0CBF3D403543556017
:1007F400956814F4801F0CBF3D4035439560D5685F
:10080400A40254BF3D403543D5600133102B7FF41F
:1008140048AF05B0BDE8F08F5D46D5E70125D3E7C5
:100824000225D1E70325CFE70425CDE70525CBE74E
:10083400003C014000000240003802400014024025
:100844000369194214BF0120002070470AB1816175
:1008540070470904FBE700002DE9F0410D4604460A
:1008640010B90120BDE8F081444B1A6802F00F0270
:100874008A4228D321688F072DD4C80740D43F4B20
:100884001A6802F00F02954266D3226851076CD4AD
:10089400130707D53A4A2169936823F4604343EA6E
:1008A400C103936000F098F8354B364A9B68C3F354
:1008B4000313D35CD840344B18600020FFF728FEA4
:1008C4000020BDE8F081CAB21A701B6803F00F0360
:1008D4009942C6D1CEE72A4B11F0040F1EBF9A6885
:1008E40042F4E0529A600E0742BF9A6842F46042B2
:1008F4009A609A68A06822F0F00202439A60BCE70A
:1009040062681F4B012A1DD11B6813F4003FA8D055
:100914001B4EB36823F003031343B360FFF742FE97
:1009240041F288380746B368626803F00C03B3EBFE
:10093400820FA4D0FFF736FEC01B4045F3D9032035
:10094400BDE8F081911E01291B6802D813F0007FD5
:10095400DDE713F0020FDAE7EAB21A701B6803F05E
:100964000F039D427FF47DAF8FE70549E0688B68F4
:1009740023F4E05303438B608AE700BF003C02404A
:1009840000380240D41C000808000020014B1868FD
:10099400704700BF08000020044B054A9B68C3F35E
:1009A4008223D35C034A1068D84070470038024061
:1009B400E41C000808000020044B054A9B68C3F3AC
:1009C4004233D35C034A1068D84070470038024071
:1009D400E41C000808000020204908B58B6803F0D7
:1009E4000C03082B07D00C2B20D01D4A1D48042BC8
:1009F40018BF104608BD4A684B68496813F4800361
:100A040014BF18481648C1F3881118BF002302F018
:100A14003F02A1FB0001FFF7F3FB104B5B68C3F33C
:100A2400014301335B00B0FBF3F008BD4A684B6837
:100A3400496813F4800314BF0A480948C1F38811B4
:100A440018BF002302F03F02A1FB0001FFF7D8FB0F
:100A5400024B5B68C3F30273E5E700BF0038024052
:100A64000024F40000127A0003682DE9F341DF0743
:100A7400044610D423689E0767D423681A0700F13C
:100A8400B28023685B0700F1D080A269002A40F09D
:100A9400398100201EE0974B9A6802F00C02042A68
:100AA40010D09A6802F00C02082A02D15B685D0239
:100AB40008D4904B9A6802F00C020C2A0DD15A68A3
:100AC40050020AD58B4B1B689903D3D56368002B5E
:100AD400D0D1012002B0BDE8F0816268B2F5803F58
:100AE40011D11A6842F480321A60FFF75BFD814D20
:100AF40006462B689A03BDD4FFF754FD801B642877
:100B0400F7D90320E6E77B4DB2F5A02F2B6807D178
:100B140043F480232B602B6843F480332B60E4E799
:100B240023F480332B602B6823F480232B60002A6A
:100B3400DBD1FFF737FD06462B689B039AD5FFF7F9
:100B440031FD801B6428F7D9DBE76A4B9A6812F001
:100B54000C0F10D09A6802F00C02082A02D15B68CC
:100B64005F0208D5634A936803F00C030C2B11D180
:100B740053685E020ED45F4B1A68950702D5E2688B
:100B8400012AA6D11A68216922F0F80242EAC102B8
:100B94001A6072E7E268584BB2B101221A60FFF79B
:100BA40001FD544D06462B68980707D52B6822692A
:100BB40023F0F80343EAC2032B605EE7FFF7F2FC7D
:100BC400801B0228EFD99CE71A60FFF7EBFC494D24
:100BD40006462B6899077FF550AFFFF7E3FC801BAF
:100BE4000228F6D98DE76269444B7AB101221A6072
:100BF400FFF7D8FC3F4D06466B6F9F073FF541AFAB
:100C0400FFF7D0FC801B0228F6D97AE71A60FFF7B9
:100C1400C9FC384D06466B6F98077FF532AFFFF776
:100C2400C1FC801B0228F6D96BE7324B1A6C12F018
:100C3400805228D101921A6C42F080521A641B6CC3
:100C440003F080530193019B01262D4D2B68D90598
:100C54001BD5A368274D012B27D12B6F43F001032C
:100C64002B67FFF79FFC234D074641F288382B6F13
:100C74009B0739D5002E3FF408AF1E4A136C23F0AE
:100C84008053136401E70026DFE72B6843F4807385
:100C94002B60FFF787FC07462B68DA05D9D4FFF7EA
:100CA40081FCC01B0228F7D92BE7052B04D12B6F3D
:100CB40043F004032B67D0E72A6F22F001022A676E
:100CC4002A6F22F004022A67002BCAD1FFF76AFCBC
:100CD40041F2883807462B6F9807CBD5FFF762FCA3
:100CE400C01B4045F7D90CE7FFF75CFCC01B40452F
:100CF400BDD906E70038024000004742800E474253
:100D040000700040234DAB6803F00C03082B3FF444
:100D1400E0AE214E0023022A33602DD1FFF742FCBE
:100D240007462B68990121D4226AE3691343626A56
:100D340043EA8213E26A43EA0263226B43EA0273E0
:100D4400A26A144C5208013A43EA02436B6001233D
:100D54003360FFF727FC054623689A013FF599AEF7
:100D6400FFF720FC401B0228F6D9CAE6FFF71AFC5D
:100D7400C01B0228D5D9C4E6FFF714FC04462B682F
:100D84009B017FF586AEFFF70DFC001B0228F6D908
:100D9400B7E600BF003802406000474210B5044681
:100DA400002836D00023836290F8513003F0FF020C
:100DB4001BB980F8502000F0FFFD2168A068A269EB
:100DC400022384F851300B6823F040030B606368FE
:100DD4000343E06803432069034360690343E06914
:100DE4000343206A0343A06A034302F400700343ED
:100DF4000B60120C636A02F004021A434A60CB6966
:100E040023F40063CB6100200123606584F8513032
:100E140010BD012010BD0000036A23F0010303622A
:100E2400036A426870B584690D6824F0730425432D
:100E34008C6823F0020323430C4CA04209D004F530
:100E44008064A04205D042604A68856142630362BF
:100E540070BDCC688E6923F0080323434C6922F4E7
:100E64004072344323F004032243ECE700000140C2
:100E7400036A23F480730362036A426870B5C46929
:100E84000D6824F0730425438C6823F4007343EA4B
:100E940004230E4CA04209D004F58064A04205D07E
:100EA40042604A68C561C263036270BDCC688E69E2
:100EB40023F4006343EA04234C6922F4405234438C
:100EC40023F4806342EA0412EAE700BF0000014011
:100ED400036A23F48053036230B5046A4368C26929
:100EE4000D6822F4E64242EA05228D6824F4005497
:100EF40044EA0534094DA84209D005F58065A842A5
:100F040005D043604B68C2610364046230BD4D691F
:100F140023F4804343EA8513F3E700BF0000014054
:100F24002E4A0368904212D0B0F1804F0FD0A2F540
:100F34007C4290420BD002F58062904207D002F5C9
:100F44008062904203D002F5784290421DD14A68F3
:100F540023F070031343214A904204D1CA6823F456
:100F64004073134328E0B0F1804FF7D01C4A9042FD
:100F7400F4D002F580629042F0D002F58062904293
:100F8400ECD002F578429042E8D0164A9042E5D07F
:100F940002F580629042E1D002F580629042DDD099
:100FA400A2F598329042D9D002F580629042D5D011
:100FB40002F580629042D1D003608B68C3620B68F3
:100FC4008362064B984206D003F58063984202D0B0
:100FD4000123436170470B690363F9E70000014093
:100FE400000400400040014010B50446A0B190F850
:100FF400393003F0FF021BB980F8382000F002FDFD
:10100400022384F839302068211DFFF789FF01236A
:1010140084F83930002010BD012010BD036A23F08C
:1010240010030362036A426870B584690D6824F48E
:10103400E64444EA05258C6823F0200343EA0413BC
:101044000D4CA04209D004F58064A04205D0426052
:101054004A6885618263036270BDCC688E6923F03F
:10106400800343EA04134C6922F44062344323F0BE
:10107400400342EA8402EAE70000014038B590F8F0
:101084003830012B04464FF0020025D0012384F8A8
:10109400383084F839000C2A18D8DFE802F0071732
:1010A40017171E1717172F17171740002068FFF779
:1010B400B3FE236809699A6942F008029A619A6941
:1010C40022F004029A619A690A439A61012300207A
:1010D40084F8393084F8380038BD2068FFF79EFF63
:1010E400236809699A6942F400629A619A6922F450
:1010F40080629A619A6942EA0122E6E72068FFF772
:10110400B7FE23680969DA6942F00802DA61DA692C
:1011140022F00402DA61DA690A43DA61D6E7206868
:10112400FFF7D6FE23680969DA6942F40062DA61DE
:10113400DA6922F48062DA61DA6942EA0122ECE7D0
:10114400036A10B501248C4023EA04030362036A92
:101154008A401A43026210BD10B504460122006899
:10116400FFF7EEFF2368084A934203D002F580623A
:10117400934203D15A6C42F400425A641A6842F012
:1011840001021A60002010BD0000014090F83830C0
:10119400012B10B54FF0020318D080F839300368E2
:1011A4000C685A68496822F070025A605A682243EF
:1011B4005A609A6822F080029A609A680A439A6098
:1011C400012380F83930002380F83830184610BDE8
:1011D40090F83830012B1FD0CB688A6823F4407311
:1011E40013434A6823F4806313430A6823F40063B7
:1011F40013430A6923F4805313434A6923F40053C5
:1012040013438A6923F4404313430268536400235D
:1012140080F8383018467047022070472DE9F047AF
:101224000668C2683369C16923F4405313433361C8
:10123400044683680069F2680343606922F4164235
:10124400034322F00C020B431343F3607369A26956
:1012540023F440731343B1F5004F73617A4B7CD18F
:101264009E4203D003F580639E4244D1FFF7A4FB62
:10127400192505FB00F360684FF064094000B3FBD7
:10128400F0F3B3FBF9F34FEA0318FFF795FB636838
:1012940068435B00B0FBF3F7FFF78EFB63686843BA
:1012A4005B00B0FBF3F3B3FBF9F309FB1373DB004F
:1012B4003233B3FBF9F35B0003F4F877FFF77CFBFD
:1012C400626868435200B0FBF2FAFFF775FB63688B
:1012D40068435B00B0FBF3F3B3FBF9F309FB13A31F
:1012E400DB003233B3FBF9F303F0070343443B441D
:1012F400B360BDE8F087FFF74FFB192505FB00F34A
:1013040060684FF064094000B3FBF0F3B3FBF9F3FA
:101314004FEA0318FFF740FB636868435B00B0FBC8
:10132400F3F7FFF739FB636868435B00B0FBF3F343
:10133400B3FBF9F309FB1373DB003233B3FBF9F3AB
:101344005B0003F4F877FFF727FB626868435200F9
:10135400B0FBF2FAFFF720FBB9E79E4202D03B4B09
:101364009E4240D1FFF728FB676819254FF06409B6
:1013740005FB00F3BF00B3FBF7F3B3FBF9F31F0165
:10138400FFF71AFB636868439B00B0FBF3F8FFF7B1
:1013940013FB636868439B00B0FBF3F3B3FBF9F3FF
:1013A40009FB13831B013233B3FBF9F303F0F00899
:1013B400FFF702FB626868439200B0FBF2FAFFF7A2
:1013C400FBFA636868439B00B0FBF3F3B3FBF9F3E8
:1013D40009FB13A31B013233B3FBF9F303F00F032F
:1013E40043EA080383E7FFF7D7FA676819254FF044
:1013F400640905FB00F3BF00B3FBF7F3B3FBF9F398
:101404001F01FFF7C9FA636868439B00B0FBF3F858
:10141400FFF7C2FA636868439B00B0FBF3F3B3FBC6
:10142400F9F309FB13831B013233B3FBF9F303F024
:10143400F008FFF7B1FA626868439200B0FBF2FA71
:10144400FFF7AAFABDE700BF0010014000140140F5
:1014540010B5044640B390F8393003F0FF021BB9CD
:1014640080F8382000F07CFB2268242384F839308B
:10147400D36823F40053D3602046FFF7CFFE2368DC
:101484001A6922F490421A615A6922F02A025A61B6
:10149400DA6842F40052DA6000202023E06384F822
:1014A400393084F83A3010BD012010BD30B595B004
:1014B4000022274B0092196C41F0805119641B6C77
:1014C400244903F080530093009B01920B6823F49A
:1014D400404343F480430B600B680E9203F4404393
:1014E4000193019B01230A93102302240B930F936E
:1014F40004254FF4A87307A807940D94109311952D
:1015040012941394FFF7B0FA00B1FEE70F2302938D
:1015140004904FF480530690214602A80394059347
:10152400FFF79AF9044600B1FEE7FFF72FFA4FF4EC
:101534007A73B0FBF3F0FFF781F82846FFF794F8CD
:10154400224621464FF0FF30FFF744F815B030BD76
:1015540000380240007000402DE9F04794B00024A8
:10156400FEF7FAFFFFF7A2FF9A4B00941A6B9A4812
:1015740042F004021A631A6B02F004020092009A09
:1015840001941A6B42F080021A631A6B02F0800213
:101594000192019A02941A6B42F001021A631A6BC7
:1015A40002F001020292029A03941A6B42F00202C0
:1015B4001A631B6B03F00203224603934FF480610A
:1015C4000126039B4FF40055FFF740F9834B8248F3
:1015D4000E930DA90D950F96FFF758F80D230DA93D
:1015E4007D480D930E940F96FFF750F84FF48063E7
:1015F40079480D930DA90E960F941094FFF746F8B1
:101604007748784A84604FF4E1330C2780E80C0073
:10161400C460046147618461C461FFF719FF00B1CC
:10162400FEE7714B714A1A6058609860D86018617F
:10163400586198611862586298620A221846DA6200
:10164400FFF7ACFB00B1FEE7694C6A4BA060206178
:1016540060614FF0A80A42F20F79204684E808043A
:10166400C4F80C90FFF7C0FC264600B1FEE70490D6
:10167400059004A92046FFF789FD00B1FEE74FF06D
:1016840060080790089009900A900B900C9004222F
:1016940006A92046CDF81880FFF7F0FC00B1FEE75C
:1016A4003A4606A92046FFF7E9FC00B1FEE70D9093
:1016B4000E900F901090119013900DA92046129542
:1016C400FFF786FD054600B1FEE720464A4C00F0D0
:1016D400E5F94FF080432046A560256184E80804BD
:1016E400C4F80C90FFF780FC254600B1FEE7069095
:1016F400079006A92046FFF749FD024600B1FEE720
:101704000E900F9011900DA92046CDF83480FFF76C
:10171400B5FC00B1FEE704220DA93748FFF7AEFC83
:1017240000B1FEE70C220DA93348FFF7A7FC804661
:1017340000B1FEE7314C304800F0B0F9304BC4F84A
:1017440008804FF0A80942F20F772046C4F81080B1
:1017540084E80802E760FFF747FCA04600B1FEE713
:101764000690079006A92046FFF710FD024600B137
:10177400FEE760230E900F9011900DA920460D9363
:10178400FFF77CFC00B1FEE704220DA92046FFF719
:1017940075FC00B1FEE708220DA92046FFF76EFC98
:1017A40000B1FEE70C220DA92046FFF767FC824634
:1017B40000B1FEE72046134C00F070F9124BE760CD
:1017C400204684E80806C4F810A0FFF70DFCE8B131
:1017D400FEE700BF0038024000080240000021106C
:1017E4009801002000440040040100200030014022
:1017F400C8000020000001405C01002070000020AF
:10180400000400402C0000200008004006900790CF
:1018140006A92046FFF7BAFC00B1FEE700226023C8
:101824000DA93C480D930E920F921192FFF726FCDE
:1018340000B1FEE708220DA93648FFF71FFC00B1EE
:10184400FEE70C220DA93348FFF718FC074600B148
:10185400FEE7304800F022F904212F48FFF77CFC12
:101864000C212D48FFF778FC39462C48FFF774FC0F
:1018740004212A48FFF770FC0C212848FFF76CFC70
:1018840039462748FFF768FC04212548FFF764FC24
:1018940008212348FFF760FC0C212148FFF75CFC7A
:1018A40039461C481F4FFFF757FC08211948FFF71A
:1018B40053FC0C211748FFF74FFC01213846FEF773
:1018C400BFFFC0B901224FF480613846FEF7BEFF66
:1018D400326840F2EE23936313642A68536393637C
:1018E4001364D8F800205363D363136422685363EA
:1018F400D3631364E1E704213846FEF7A1FF00280F
:10190400E0D008213846FEF79BFF0028DAD00022F9
:10191400D9E700BF2C000020C80000205C01002093
:10192400700000200008024013B5224B00240094EC
:101934005A6C42F480425A645A6C02F48042009217
:10194400009A01941A6C42F080521A641B6C03F0E2
:10195400805301930720019BFEF72AFE224621466D
:101964006FF00B00FEF736FE224621466FF00A00A8
:10197400FEF730FE224621466FF00900FEF72AFEEC
:10198400224621466FF00400FEF724FE224621463B
:101994006FF00300FEF71EFE224621466FF00100A1
:1019A400FEF718FE224621464FF0FF30FEF712FEE6
:1019B40002B010BD003802407FB502680F4B9A4256
:1019C40019D1002103F5843300915A6C0C4842F478
:1019D40080525A645B6C039103F480530093009B20
:1019E400F0230193022302930323049301A9052303
:1019F4000593FEF74BFE07B05DF804FB0030014091
:101A0400000002400368214A934284B00DD10023B0
:101A140000931F4B5A6C42F001025A645B6C03F052
:101A240001030093009B04B07047B3F1804F0CD1C5
:101A340000230193164B1A6C42F001021A641B6CCA
:101A440003F001030193019BEDE7124A93420CD189
:101A5400002302930E4B1A6C42F002021A641B6CB0
:101A640003F002030293029BDDE70B4A9342DAD1AF
:101A740000230393064B1A6C42F004021A641B6C95
:101A840003F004030393039BCDE700BF0000014070
:101A940000380240000400400008004070B50368AC
:101AA400294A934286B00FD14FF420630193022355
:101AB400029300230393049324480123059301A96B
:101AC400FEF7E4FD06B070BDB3F1804F16D10024DB
:101AD40003230226012501A91C48019302960394BD
:101AE40004940595FEF7D2FD042301930296039412
:101AF400049405950DEB03011548E1E7154A93425B
:101B040014D102240025032301A91148019302944E
:101B1400039504950594FEF7B9FDC023019302943F
:101B240003950495059401A90B48C9E70B4A934210
:101B3400C8D14FF4507300220193022302930392FD
:101B44000492059301A9D7E7000001400000024078
:101B54000004024000040040000802400008004065
:101B64007FB502680F4B9A4219D1002300930E4BA4
:101B74000E481A6C42F400321A641B6C03F40033EE
:101B84000093009B0C2301930223029301230393EC
:101B94000323049301A907230593FEF777FD07B0F8
:101BA4005DF804FB0044004000380240000002409D
:101BB4007047FEE7FEE7FEE7FEE7704770477047B1
:101BC40008B5FEF7E3FCBDE80840FEF75ABD000087
:101BD4000F49D1F8883043F47003C1F888300D4BB5
:101BE4001A68002042F001021A6098601A6822F014
:101BF400847222F480321A60074A5A601A6822F406
:101C040080221A60D8604FF000638B60704700BF79
:101C140000ED00E00038024010300024DFF834D03A
:101C2400002103E00C4B5B58435004310B480C4B30
:101C340042189A42F6D30B4A02E0002342F8043BCE
:101C4400094B9A42F9D3FFF7C3FF00F011F8FFF7ED
:101C540083FC704700000220FC1C000800000020E8
:101C64000C0000200C000020D8010020FEE700003A
:101C740070B50D4E0D4CA41BA4100025A54209D12E
:101C84000B4E0C4C00F018F8A41BA4100025A54220
:101C940005D170BD56F8253098470135EEE756F862
:101CA400253098470135F2E7F41C0008F41C0008BD
:101CB400F41C0008F81C0008F8B500BFF8BC08BC08
:101CC4009E467047F8B500BFF8BC08BC9E467047F6
:101CD40000000000000000000102030406070809D8
:081CE4000000000001020304EE
:081CEC0048E5FF7F0100000044
:041CF400E9010008FA
:041CF800C50100081A
:0C1CFC0001000000100000000024F400B3
:0400000508001C21B2
:00000001FF
