:020000040800F2
:1000000000000220151B0008A91A0008AB1A0008FE
:10001000AD1A0008AF1A0008B11A0008000000006D
:10002000000000000000000000000000B31A0008FB
:10003000B51A000800000000B71A0008B91A000835
:10004000651B0008651B0008651B0008651B000890
:10005000651B0008651B0008651B0008651B000880
:10006000651B0008651B0008651B0008651B000870
:10007000651B0008651B0008651B0008651B000860
:10008000651B0008651B0008651B0008651B000850
:10009000651B0008651B0008651B0008651B000840
:1000A000651B0008651B0008651B0008651B000830
:1000B000651B0008651B0008651B0008651B000820
:1000C000651B0008651B0008651B0008651B000810
:1000D000651B0008651B0008651B0008651B000800
:1000E000651B0008651B0008651B0008651B0008F0
:1000F000651B0008651B0008651B0008651B0008E0
:10010000651B0008651B0008651B0008651B0008CF
:10011000651B0008651B0008651B0008651B0008BF
:10012000651B0008651B0008651B0008651B0008AF
:10013000651B00080000000000000000651B0008AF
:10014000651B0008651B0008651B0008651B00088F
:10015000651B0008651B0008651B0008651B00087F
:10016000651B0008651B0008651B0008651B00086F
:10017000651B0008651B0008651B000800000000E7
:1001800000000000651B00080000000000000000E7
:10019000651B00080000000000000000651B00084F
:1001A000000000000000000000000000651B0008C7
:1001B000651B0008651B0008651B0008651B00081F
:0401C000651B0008B3
:1001C40010B5054C237833B9044B13B10448AFF38D
:1001D40000800123237010BD0C00002000000000EB
:1001E400B01B000808B5034B1BB103490348AFF328
:1001F400008008BD0000000010000020B01B0008B3
:1002040053B94AB9002908BF00281CBF4FF0FF3179
:100214004FF0FF3000F07AB9ADF1080C6DE904CE6F
:1002240000F006F8DDF804E0DDE9022304B07047CD
:100234002DE9F0478C460D460446089E002B51D10B
:100244008A4217466DD9B2FA82FEBEF1000F0BD076
:10025400CEF1200C01FA0EF520FA0CFC02FA0EF78E
:100264004CEA050C00FA0EF44FEA174A250CBCFBC5
:10027400FAF81FFA87F90AFB18CC45EA0C4508FB83
:1002840009F3AB420AD9ED1908F1FF3280F023815A
:10029400AB4240F22081A8F102083D44ED1AA4B219
:1002A400B5FBFAF00AFB105544EA054400FB09F9D2
:1002B400A14509D9E41900F1FF3380F00A81A14571
:1002C40040F2078102383C44A4EB090440EA0840A8
:1002D4000021002E61D024FA0EF4002334607360F0
:1002E400BDE8F0878B4207D9002E54D0002186E860
:1002F40021000846BDE8F087B3FA83F1002940F0F5
:100304008E80AB4202D3824200F2FA80841A65EBFB
:1003140003050120AC46002E3FD086E81010BDE84E
:10032400F08712B90127B7FBF2F7B7FA87FEBEF1DF
:10033400000F34D1EB1B3A0C1FFA87FC0121B3FBED
:10034400F2F8250C02FB183345EA03450CFB08F3CD
:10035400AB4207D9ED1908F1FF3002D2AB4200F2EB
:10036400D1808046ED1AA3B2B5FBF2F002FB105522
:1003740043EA05440CFB00FCA44507D9E41900F149
:10038400FF3302D2A44500F2B8801846A4EB0C0453
:1003940040EA08409DE731463046BDE8F087CEF19B
:1003A400200405FA0EF307FA0EF720FA04F83A0CC3
:1003B40025FA04F448EA0308B4FBF2F14FEA1845BD
:1003C40002FB11441FFA87FC45EA044501FB0CF3C8
:1003D400AB4200FA0EF409D9ED1901F1FF3080F0B7
:1003E4008A80AB4240F2878002393D44EB1A1FFAFF
:1003F40088F5B3FBF2F002FB103345EA034500FB3A
:100404000CF3AB4207D9ED1900F1FF386FD2AB42C0
:100414006DD902383D44EB1A40EA01418FE7C1F13E
:10042400200722FA07F88B4005FA01F448EA03038F
:1004340020FA07FE4FEA134CFD404EEA040EB5FBCA
:10044400FCF94FEA1E440CFB19551FFA83F844EAE1
:10045400054509FB08F4AC4202FA01F200FA01FA7C
:1004640008D9ED1809F1FF3043D2AC4241D9A9F1C2
:1004740002091D442D1B1FFA8EFEB5FBFCF00CFB7C
:1004840010554EEA054400FB08F8A04507D9E418C6
:1004940000F1FF3529D2A04527D902381C4440EA8F
:1004A4000940A4EB0804A0FB02894C45C6464D460E
:1004B40015D312D056B1BAEB0E0364EB050404FA5B
:1004C40007F7CB401F43CC40376074600021BDE880
:1004D400F0871846F8E69046E0E6C245EAD2B8EB63
:1004E400020E69EB03050138E4E72846D7E74046E6
:1004F40091E78146BEE7014678E702383C4445E788
:10050400084608E7A8F102083D442BE7704700BFFE
:1005140038B50E4A0E4B054618784FF47A73B3FB80
:10052400F0F31068B0FBF3F000F088F8044658B913
:100534000F2D09D8024629464FF0FF3000F04AF843
:10054400044B20461D6038BD012038BD0800002042
:10055400000000200400002008B50B4B1A6842F488
:1005640000721A601A6842F480621A601A6842F4CF
:1005740080721A60032000F01BF80020FFF7C8FF08
:1005840001F04CF9002008BD003C0240034A044B32
:1005940011681B780B441360704700BF28000020CB
:1005A40000000020014B1868704700BF280000209D
:1005B400074AD36823F4E0631B041B0C43F0BF63B6
:1005C400000243F4003300F4E0600343D360704757
:1005D40000ED00E0174B30B5DC68C4F30224C4F12D
:1005E4000703251D042B28BF0423062D4FF0010506
:1005F40005FA03F303F1FF338CBF033C00241940D5
:10060400A14005FA04F4013C2240002842EA010218
:100614004FEA0212AFBF00F1604000F00F00064B3A
:10062400D2B2A5BF00F56140D2B21A5480F80023BB
:1006340030BD00BF00ED00E014ED00E00138B0F182
:10064400807F0AD2064B074A5860F02182F82310B3
:100654000020072298601A6070470120704700BF8D
:1006640010E000E000ED00E0044B1A6804280CBF21
:1006740042F0040222F004021A60704710E000E025
:10068400704708B5FFF7FCFF08BD00002DE9F04FE7
:1006940085B00B68DFF8A081654ADFF8A09101936B
:1006A40000234FF0010E019C0EFA03FE0EEA04062D
:1006B400B64540F0AA804C6824F01007022F16D1EA
:1006C4004FEAD30A00EB8A0A03F0070BDAF820504A
:1006D4004FEA8B0B4FF00F0C0CFA0BFC25EA0C0CB9
:1006E4000D6905FA0BF545EA0C05CAF820504FEAE6
:1006F400430A0325D0F800B005FA0AF5ED4304F0E7
:10070400030C0BEA050B0CFA0AFC013F4CEA0B0C38
:10071400012FC0F800C011D8876807EA050BCF681D
:1007240007FA0AFC4CEA0B078760476827EA0E0EB3
:10073400C4F300179F4047EA0E074760C7683D406F
:100744008F6807FA0AF73D43C560E5005DD54FF0B1
:10075400000BCDF80CB0D8F84470364D47F4804700
:10076400C8F84470D8F8447007F480470397039F8F
:1007740023F0030707F1804707F59C3703F0030CC8
:10078400D7F808A04FEA8C0C4FF00F0E0EFA0CFEAF
:10079400A8422AEA0E0E3FD005F58065A8423DD056
:1007A40005F58065A8423BD005F58065A84239D09F
:1007B40005F58065A84237D0484537D005F5006572
:1007C400A84214BF0725062505FA0CF545EA0E05CF
:1007D400BD601568F74314F4803F0CBF3D403543BA
:1007E4001560556814F4003F0CBF3D403543556017
:1007F400956814F4801F0CBF3D4035439560D5685F
:10080400A40254BF3D403543D5600133102B7FF41F
:1008140048AF05B0BDE8F08F5D46D5E70125D3E7C5
:100824000225D1E70325CFE70425CDE70525CBE74E
:10083400003C014000000240003802400014024025
:100844000369194214BF0120002070470AB1816175
:1008540070470904FBE700002DE9F0410D4604460A
:1008640010B90120BDE8F081444B1A6802F00F0270
:100874008A4228D321688F072DD4C80740D43F4B20
:100884001A6802F00F02954266D3226851076CD4AD
:10089400130707D53A4A2169936823F4604343EA6E
:1008A400C103936000F098F8354B364A9B68C3F354
:1008B4000313D35CD840344B18600020FFF728FEA4
:1008C4000020BDE8F081CAB21A701B6803F00F0360
:1008D4009942C6D1CEE72A4B11F0040F1EBF9A6885
:1008E40042F4E0529A600E0742BF9A6842F46042B2
:1008F4009A609A68A06822F0F00202439A60BCE70A
:1009040062681F4B012A1DD11B6813F4003FA8D055
:100914001B4EB36823F003031343B360FFF742FE97
:1009240041F288380746B368626803F00C03B3EBFE
:10093400820FA4D0FFF736FEC01B4045F3D9032035
:10094400BDE8F081911E01291B6802D813F0007FD5
:10095400DDE713F0020FDAE7EAB21A701B6803F05E
:100964000F039D427FF47DAF8FE70549E0688B68F4
:1009740023F4E05303438B608AE700BF003C02404A
:1009840000380240C81B000808000020014B18680A
:10099400704700BF08000020044B054A9B68C3F35E
:1009A4008223D35C034A1068D84070470038024061
:1009B400D81B000808000020044B054A9B68C3F3B9
:1009C4004233D35C034A1068D84070470038024071
:1009D400D81B000808000020204908B58B6803F0E4
:1009E4000C03082B07D00C2B20D01D4A1D48042BC8
:1009F40018BF104608BD4A684B68496813F4800361
:100A040014BF18481648C1F3881118BF002302F018
:100A14003F02A1FB0001FFF7F3FB104B5B68C3F33C
:100A2400014301335B00B0FBF3F008BD4A684B6837
:100A3400496813F4800314BF0A480948C1F38811B4
:100A440018BF002302F03F02A1FB0001FFF7D8FB0F
:100A5400024B5B68C3F30273E5E700BF0038024052
:100A64000024F40000127A0003682DE9F341DF0743
:100A7400044610D423689E0767D423681A0700F13C
:100A8400B28023685B0700F1D080A269002A40F09D
:100A9400398100201EE0974B9A6802F00C02042A68
:100AA40010D09A6802F00C02082A02D15B685D0239
:100AB40008D4904B9A6802F00C020C2A0DD15A68A3
:100AC40050020AD58B4B1B689903D3D56368002B5E
:100AD400D0D1012002B0BDE8F0816268B2F5803F58
:100AE40011D11A6842F480321A60FFF75BFD814D20
:100AF40006462B689A03BDD4FFF754FD801B642877
:100B0400F7D90320E6E77B4DB2F5A02F2B6807D178
:100B140043F480232B602B6843F480332B60E4E799
:100B240023F480332B602B6823F480232B60002A6A
:100B3400DBD1FFF737FD06462B689B039AD5FFF7F9
:100B440031FD801B6428F7D9DBE76A4B9A6812F001
:100B54000C0F10D09A6802F00C02082A02D15B68CC
:100B64005F0208D5634A936803F00C030C2B11D180
:100B740053685E020ED45F4B1A68950702D5E2688B
:100B8400012AA6D11A68216922F0F80242EAC102B8
:100B94001A6072E7E268584BB2B101221A60FFF79B
:100BA40001FD544D06462B68980707D52B6822692A
:100BB40023F0F80343EAC2032B605EE7FFF7F2FC7D
:100BC400801B0228EFD99CE71A60FFF7EBFC494D24
:100BD40006462B6899077FF550AFFFF7E3FC801BAF
:100BE4000228F6D98DE76269444B7AB101221A6072
:100BF400FFF7D8FC3F4D06466B6F9F073FF541AFAB
:100C0400FFF7D0FC801B0228F6D97AE71A60FFF7B9
:100C1400C9FC384D06466B6F98077FF532AFFFF776
:100C2400C1FC801B0228F6D96BE7324B1A6C12F018
:100C3400805228D101921A6C42F080521A641B6CC3
:100C440003F080530193019B01262D4D2B68D90598
:100C54001BD5A368274D012B27D12B6F43F001032C
:100C64002B67FFF79FFC234D074641F288382B6F13
:100C74009B0739D5002E3FF408AF1E4A136C23F0AE
:100C84008053136401E70026DFE72B6843F4807385
:100C94002B60FFF787FC07462B68DA05D9D4FFF7EA
:100CA40081FCC01B0228F7D92BE7052B04D12B6F3D
:100CB40043F004032B67D0E72A6F22F001022A676E
:100CC4002A6F22F004022A67002BCAD1FFF76AFCBC
:100CD40041F2883807462B6F9807CBD5FFF762FCA3
:100CE400C01B4045F7D90CE7FFF75CFCC01B40452F
:100CF400BDD906E70038024000004742800E474253
:100D040000700040234DAB6803F00C03082B3FF444
:100D1400E0AE214E0023022A33602DD1FFF742FCBE
:100D240007462B68990121D4226AE3691343626A56
:100D340043EA8213E26A43EA0263226B43EA0273E0
:100D4400A26A144C5208013A43EA02436B6001233D
:100D54003360FFF727FC054623689A013FF599AEF7
:100D6400FFF720FC401B0228F6D9CAE6FFF71AFC5D
:100D7400C01B0228D5D9C4E6FFF714FC04462B682F
:100D84009B017FF586AEFFF70DFC001B0228F6D908
:100D9400B7E600BF003802406000474210B5044681
:100DA400002836D00023836290F8513003F0FF020C
:100DB4001BB980F8502000F079FD2168A068A26971
:100DC400022384F851300B6823F040030B606368FE
:100DD4000343E06803432069034360690343E06914
:100DE4000343206A0343A06A034302F400700343ED
:100DF4000B60120C636A02F004021A434A60CB6966
:100E040023F40063CB6100200123606584F8513032
:100E140010BD012010BD0000036A23F0010303622A
:100E2400036A426870B584690D6824F0730425432D
:100E34008C6823F0020323430C4CA04209D004F530
:100E44008064A04205D042604A68856142630362BF
:100E540070BDCC688E6923F0080323434C6922F4E7
:100E64004072344323F004032243ECE700000140C2
:100E7400036A23F480730362036A426870B5C46929
:100E84000D6824F0730425438C6823F4007343EA4B
:100E940004230E4CA04209D004F58064A04205D07E
:100EA40042604A68C561C263036270BDCC688E69E2
:100EB40023F4006343EA04234C6922F4405234438C
:100EC40023F4806342EA0412EAE700BF0000014011
:100ED400036A23F48053036230B5046A4368C26929
:100EE4000D6822F4E64242EA05228D6824F4005497
:100EF40044EA0534094DA84209D005F58065A842A5
:100F040005D043604B68C2610364046230BD4D691F
:100F140023F4804343EA8513F3E700BF0000014054
:100F24002E4A0368904212D0B0F1804F0FD0A2F540
:100F34007C4290420BD002F58062904207D002F5C9
:100F44008062904203D002F5784290421DD14A68F3
:100F540023F070031343214A904204D1CA6823F456
:100F64004073134328E0B0F1804FF7D01C4A9042FD
:100F7400F4D002F580629042F0D002F58062904293
:100F8400ECD002F578429042E8D0164A9042E5D07F
:100F940002F580629042E1D002F580629042DDD099
:100FA400A2F598329042D9D002F580629042D5D011
:100FB40002F580629042D1D003608B68C3620B68F3
:100FC4008362064B984206D003F58063984202D0B0
:100FD4000123436170470B690363F9E70000014093
:100FE400000400400040014010B50446A0B190F850
:100FF400393003F0FF021BB980F8382000F07CFC84
:10100400022384F839302068211DFFF789FF01236A
:1010140084F83930002010BD012010BD036A23F08C
:1010240010030362036A426870B584690D6824F48E
:10103400E64444EA05258C6823F0200343EA0413BC
:101044000D4CA04209D004F58064A04205D0426052
:101054004A6885618263036270BDCC688E6923F03F
:10106400800343EA04134C6922F44062344323F0BE
:10107400400342EA8402EAE70000014038B590F8F0
:101084003830012B04464FF0020025D0012384F8A8
:10109400383084F839000C2A18D8DFE802F0071732
:1010A40017171E1717172F17171740002068FFF779
:1010B400B3FE236809699A6942F008029A619A6941
:1010C40022F004029A619A690A439A61012300207A
:1010D40084F8393084F8380038BD2068FFF79EFF63
:1010E400236809699A6942F400629A619A6922F450
:1010F40080629A619A6942EA0122E6E72068FFF772
:10110400B7FE23680969DA6942F00802DA61DA692C
:1011140022F00402DA61DA690A43DA61D6E7206868
:10112400FFF7D6FE23680969DA6942F40062DA61DE
:10113400DA6922F48062DA61DA6942EA0122ECE7D0
:1011440090F83830012B10B54FF0020318D080F816
:10115400393003680C685A68496822F070025A6092
:101164005A6822435A609A6822F080029A609A6808
:101174000A439A60012380F83930002380F838301C
:10118400184610BD90F83830012B1FD0CB688A6800
:1011940023F4407313434A6823F4806313430A68B7
:1011A40023F4006313430A6923F4805313434A6905
:1011B40023F4005313438A6923F44043134302681E
:1011C4005364002380F83830184670470220704773
:1011D4002DE9F0470668C2683369C16923F44053B6
:1011E40013433361044683680069F268034360690A
:1011F40022F41642034322F00C020B431343F36020
:101204007369A26923F440731343B1F5004F73610A
:101214007A4B7CD19E4203D003F580639E4244D135
:10122400FFF7CAFB192505FB00F360684FF064095A
:101234004000B3FBF0F3B3FBF9F34FEA0318FFF7F5
:10124400BBFB636868435B00B0FBF3F7FFF7B4FBD9
:10125400636868435B00B0FBF3F3B3FBF9F309FB8A
:101264001373DB003233B3FBF9F35B0003F4F87759
:10127400FFF7A2FB626868435200B0FBF2FAFFF783
:101284009BFB636868435B00B0FBF3F3B3FBF9F3C8
:1012940009FB13A3DB003233B3FBF9F303F00703B9
:1012A40043443B44B360BDE8F087FFF775FB192561
:1012B40005FB00F360684FF064094000B3FBF0F3F2
:1012C400B3FBF9F34FEA0318FFF766FB636868435F
:1012D4005B00B0FBF3F7FFF75FFB636868435B00F9
:1012E400B0FBF3F3B3FBF9F309FB1373DB00323305
:1012F400B3FBF9F35B0003F4F877FFF74DFB626887
:1013040068435200B0FBF2FAFFF746FBB9E79E428E
:1013140002D03B4B9E4240D1FFF74EFB6768192534
:101324004FF0640905FB00F3BF00B3FBF7F3B3FB15
:10133400F9F31F01FFF740FB636868439B00B0FBB0
:10134400F3F8FFF739FB636868439B00B0FBF3F3E2
:10135400B3FBF9F309FB13831B013233B3FBF9F33A
:1013640003F0F008FFF728FB626868439200B0FBC3
:10137400F2FAFFF721FB636868439B00B0FBF3F3C9
:10138400B3FBF9F309FB13A31B013233B3FBF9F3EA
:1013940003F00F0343EA080383E7FFF7FDFA6768E6
:1013A40019254FF0640905FB00F3BF00B3FBF7F305
:1013B400B3FBF9F31F01FFF7EFFA636868439B007F
:1013C400B0FBF3F8FFF7E8FA636868439B00B0FBEF
:1013D400F3F3B3FBF9F309FB13831B013233B3FBC0
:1013E400F9F303F0F008FFF7D7FA62686843920054
:1013F400B0FBF2FAFFF7D0FABDE700BF00100140DE
:101404000014014010B5044640B390F8393003F09D
:10141400FF021BB980F8382000F01CFB226824234B
:1014240084F83930D36823F40053D3602046FFF79F
:10143400CFFE23681A6922F490421A615A6922F095
:101444002A025A61DA6842F40052DA60002020234A
:10145400E06384F8393084F83A3010BD012010BDBF
:1014640030B595B00022274B0092196C41F08051A1
:1014740019641B6C244903F080530093009B019270
:101484000B6823F4404343F480430B600B680E92D3
:1014940003F440430193019B01230A931023022484
:1014A4000B930F9304254FF4A87307A807940D9486
:1014B4001093119512941394FFF7D6FA00B1FEE736
:1014C4000F23029304904FF480530690214602A800
:1014D40003940593FFF7C0F9044600B1FEE7FFF754
:1014E40055FA4FF47A73B0FBF3F0FFF7A7F82846E8
:1014F400FFF7BAF8224621464FF0FF30FFF76AF8AB
:1015040015B030BD003802400070004000B595B001
:101514000024FFF721F8FFF7A3FF8D4B00941A6B0B
:101524008C4842F004021A631A6B02F0040200921F
:10153400009A01941A6B42F080021A631A6B02F04B
:1015440080020192019A02941A6B42F001021A631A
:101554001A6B02F001020292029A03941A6B42F08F
:1015640002021A631B6B03F00203224603934FF437
:1015740080610126039B4FF40055FFF767F9764B12
:1015840074480E930DA90F960D95FFF77FF80D2360
:101594000DA970480D930F960E94FFF777F84FF44A
:1015A40080636C480D930DA90E960F941094FFF769
:1015B4006DF86A486A4A84604FF4E1330C2680E887
:1015C4000C00C460046146618461C461FFF71AFFC2
:1015D40000B1FEE7634B644A1A6058609860D860B3
:1015E4001861586198611862586298620A22184614
:1015F400DA62FFF7D3FB00B1FEE75C4C5C4B606042
:10160400A060E0602061606120462360FFF7ECFC8D
:1016140000B1FEE70490059004A92046FFF790FD71
:10162400024600B1FEE760230790089009900A90F3
:101634000B900C9006A920460693FFF71FFD00B1FE
:10164400FEE7042206A92046FFF718FD00B1FEE7D5
:10165400324606A92046FFF711FD00B1FEE70D90C2
:101664000E900F901090119013900DA92046129592
:10167400FFF788FD054600B1FEE720463D4C00F02B
:1016840087F94FF08043204684E82800A560E56090
:101694002561FFF7A9FC00B1FEE70690079006A9B3
:1016A4002046FFF74DFD00B1FEE7002260260DA99C
:1016B40030480D960E920F921192FFF7DFFC00B1A5
:1016C400FEE704220DA92B48FFF7D8FC00B1FEE782
:1016D40008220DA92748FFF7D1FC00B1FEE70C2230
:1016E4000DA92448FFF7CAFC054600B1FEE7224CC9
:1016F400204800F04DF9214BA560204684E82800DD
:10170400E5602561FFF770FC00B1FEE706900790E5
:1017140006A92046FFF714FD024600B1FEE70E902D
:101724000F9011900DA920460D96FFF7A7FC00B16C
:10173400FEE708220DA92046FFF7A0FC00B1FEE752
:101744000C220DA92046FFF799FC0546C0B1FEE71F
:1017540000380240000802400000211074010020FB
:1017640000440040E000002000300140A4000020BC
:1017740000000140380100206800002000040040FF
:10178400204600F005F92248224B856080E82800B5
:10179400C5600561FFF728FC00B1FEE7002306A938
:1017A4001B4806930793FFF7CBFC00B1FEE76023C9
:1017B4000E900F90119008220DA915480D93FFF774
:1017C4005DFC00B1FEE70C220DA91148FFF756FCA1
:1017D40000B1FEE70E48104C00F0DAF80121204673
:1017E400FFF72EF830B901224FF480612046FFF74D
:1017F4002DF8F3E704212046FFF722F80028F2D061
:1018040008212046FFF71CF80028ECD00022EBE763
:101814002C000020000800400008024013B5224BB1
:10182400002400945A6C42F480425A645A6C02F4C4
:1018340080420092009A01941A6C42F080521A6419
:101844001B6C03F0805301930720019BFEF7B0FE4D
:10185400224621466FF00B00FEF7BCFE22462146CD
:101864006FF00A00FEF7B6FE224621466FF009002B
:10187400FEF7B0FE224621466FF00400FEF7AAFEF2
:10188400224621466FF00300FEF7A4FE22462146BD
:101894006FF00100FEF79EFE224621464FF0FF3016
:1018A400FEF798FE02B010BD003802407FB5026812
:1018B4000F4B9A4219D1002103F5843300915A6CDD
:1018C4000C4842F480525A645B6C039103F48053D5
:1018D4000093009BF02301930223029303230493B8
:1018E40001A905230593FEF7D1FE07B05DF804FBBB
:1018F40000300140000002400368214A934284B052
:101904000DD1002300931F4B5A6C42F001025A641C
:101914005B6C03F001030093009B04B07047B3F1C8
:10192400804F0CD100230193164B1A6C42F0010234
:101934001A641B6C03F001030193019BEDE7124A47
:1019440093420CD1002302930E4B1A6C42F0020214
:101954001A641B6C03F002030293029BDDE70B4A3B
:101964009342DAD100230393064B1A6C42F004022B
:101974001A641B6C03F004030393039BCDE700BFBD
:10198400000001400038024000040040000800400C
:1019940070B50368294A934286B00FD14FF430637F
:1019A4000193022302930023039304932448012305
:1019B400059301A9FEF76AFE06B070BDB3F1804F2E
:1019C40016D1002403230226012501A91C480193F2
:1019D4000296039404940595FEF758FE40F20443DE
:1019E4000193029603940494059501A91548E1E72F
:1019F400154A934214D102240025032301A9114856
:101A040001930294039504950594FEF73FFE402349
:101A14000193029403950495059401A90B48C9E721
:101A24000B4A9342C8D14FF440730022019302231E
:101A34000293039204920593D7E700BF000001408C
:101A4400000002400004024000040040000802407C
:101A5400000800407FB502680F4B9A4219D1002359
:101A640000930E4B0E481A6C42F400321A641B6C3D
:101A740003F400330093009B0C230193022302938D
:101A8400012303930323049301A907230593FEF77A
:101A9400FDFD07B05DF804FB00440040003802403F
:101AA400000002407047FEE7FEE7FEE7FEE77047EE
:101AB4007047704708B5FEF769FDBDE80840FEF7BA
:101AC400E0BD00000F49D1F8883043F47003C1F839
:101AD40088300D4B1A68002042F001021A609860A9
:101AE4001A6822F0847222F480321A60074A5A601B
:101AF4001A6822F480221A60D8604FF000638B6069
:101B0400704700BF00ED00E00038024010300024B0
:101B1400DFF834D0002103E00C4B5B584350043110
:101B24000B480C4B42189A42F6D30B4A02E00023AE
:101B340042F8043B094B9A42F9D3FFF7C3FF00F084
:101B440011F8FFF7E3FC704700000220F01B0008C7
:101B5400000000200C0000200C000020B401002034
:101B6400FEE7000070B50D4E0D4CA41BA41000251B
:101B7400A54209D10B4E0C4C00F018F8A41BA4107C
:101B84000025A54205D170BD56F82530984701358A
:101B9400EEE756F8253098470135F2E7E81B0008D0
:101BA400E81B0008E81B0008EC1B0008F8B500BFA0
:101BB400F8BC08BC9E467047F8B500BFF8BC08BC2A
:041BC4009E46704782
:101BC80000000000000000000102030406070809E5
:081BD8000000000001020304FB
:081BE00054E6FF7F0100000044
:041BE800E901000807
:041BEC00C501000827
:0C1BF00001000000100000000024F400C0
:0400000508001B15BF
:00000001FF
