:020000040800F2
:1000000000000220354A0008ED340008EF340008F3
:10001000F1340008F3340008F53400080000000053
:10002000000000000000000000000000F73400089D
:10003000F934000800000000FB340008FD3400081B
:10004000854A0008854A0008854A0008854A000854
:10005000854A0008854A0008854A0008854A000844
:10006000854A0008854A0008854A0008854A000834
:10007000854A0008854A0008854A0008854A000824
:10008000854A0008854A0008854A0008854A000814
:10009000854A0008854A0008854A0008854A000804
:1000A000854A0008854A0008854A0008854A0008F4
:1000B000854A0008854A0008854A0008854A0008E4
:1000C000854A0008854A0008854A0008854A0008D4
:1000D000854A0008854A0008854A0008854A0008C4
:1000E000854A0008854A0008854A0008854A0008B4
:1000F000854A0008854A0008854A0008854A0008A4
:10010000854A0008854A0008854A0008854A000893
:10011000854A0008854A0008854A0008113500080C
:10012000854A0008854A0008854A0008854A000873
:10013000854A00080000000000000000854A000811
:10014000854A0008854A0008854A0008854A000853
:10015000854A0008854A0008854A0008854A000843
:10016000854A0008854A0008854A0008854A000833
:10017000854A0008854A0008854A000800000000FA
:1001800000000000854A0008000000000000000098
:10019000854A00080000000000000000854A0008B1
:1001A000000000000000000000000000854A000878
:1001B000854A0008854A0008854A0008854A0008E3
:0401C000854A000864
:1001C80010B5054C237833B9044B13B10448AFF389
:1001D80000800123237010BD800000200000000073
:1001E8001463000808B5034B1BB103490348AFF378
:1001F800008008BD0000000084000020146300088F
:1002080081F0004102E000BF83F0004330B54FEABF
:1002180041044FEA430594EA050F08BF90EA020F2C
:100228001FBF54EA000C55EA020C7FEA645C7FEABF
:10023800655C00F0E2804FEA5454D4EB5555B8BFE2
:100248006D420CDD2C4480EA020281EA030382EA53
:10025800000083EA010180EA020281EA0303362DE5
:1002680088BF30BD11F0004F4FEA01314FF4801CB8
:100278004CEA113102D0404261EB410113F0004FCA
:100288004FEA03334CEA133302D0524263EB430381
:1002980094EA050F00F0A780A4F10104D5F1200E1F
:1002A8000DDB02FA0EFC22FA05F2801841F100017A
:1002B80003FA0EF2801843FA05F359410EE0A5F14E
:1002C80020050EF1200E012A03FA0EFC28BF4CF07F
:1002D800020C43FA05F3C01851EBE37101F0004535
:1002E80007D54FF0000EDCF1000C7EEB00006EEB42
:1002F8000101B1F5801F1BD3B1F5001F0CD34908CC
:100308005FEA30004FEA3C0C04F101044FEA445222
:1003180012F5800F80F09A80BCF1004F08BF5FEAA9
:10032800500C50F1000041EB045141EA050130BD89
:100338005FEA4C0C404141EB010111F4801FA4F12C
:100348000104E9D191F0000F04BF01460020B1FA81
:1003580081F308BF2033A3F10B03B3F120020CDAB9
:100368000C3208DD02F1140CC2F10C0201FA0CF097
:1003780021FA02F10CE002F11402D8BFC2F1200CFC
:1003880001FA02F120FA0CFCDCBF41EA0C019040B2
:10039800E41AA2BF01EB0451294330BD6FEA0404FB
:1003A8001F3C1CDA0C340EDC04F11404C4F12002E6
:1003B80020FA04F001FA02F340EA030021FA04F3F8
:1003C80045EA030130BDC4F10C04C4F1200220FA4F
:1003D80002F001FA04F340EA0300294630BD21FA8D
:1003E80004F0294630BD94F0000F83F4801306BF53
:1003F80081F480110134013D4EE77FEA645C18BF47
:100408007FEA655C29D094EA050F08BF90EA020FDD
:1004180005D054EA000C04BF1946104630BD91EAD5
:10042800030F1EBF0021002030BD5FEA545C05D1D8
:100438004000494128BF41F0004130BD14F5800417
:100448003CBF01F5801130BD01F0004545F0FE418B
:1004580041F470014FF0000030BD7FEA645C1ABFC0
:10046800194610467FEA655C1CBF0B46024650EAF7
:10047800013406BF52EA033591EA030F41F4002123
:1004880030BD00BF90F0000F04BF0021704730B5A9
:100498004FF4806404F132044FF000054FF000017E
:1004A80050E700BF90F0000F04BF0021704730B53F
:1004B8004FF4806404F1320410F0004548BF404214
:1004C8004FF000013EE700BF42004FEAE2014FEA69
:1004D80031014FEA02701FBF12F07F4393F07F4F44
:1004E80081F06051704792F0000F14BF93F07F4F76
:1004F800704730B54FF4607401F0004521F00041B9
:1005080020E700BF50EA010208BF704730B54FF03E
:1005180000050AE050EA010208BF704730B511F043
:10052800004502D5404261EB41014FF4806404F17B
:1005380032045FEA915C3FF4DCAE4FF003025FEAFD
:10054800DC0C18BF03325FEADC0C18BF033202EB85
:10055800DC02C2F1200300FA03FC20FA02F001FADF
:1005680003FE40EA0E0021FA02F11444C1E600BF7E
:1005780070B54FF0FF0C4CF4E06C1CEA11541DBF31
:100588001CEA135594EA0C0F95EA0C0F00F0DEF8FC
:100598002C4481EA030621EA4C5123EA4C5350EAE1
:1005A800013518BF52EA033541F4801143F4801332
:1005B80038D0A0FB02CE4FF00005E1FB02E506F0C3
:1005C8000042E0FB03E54FF00006E1FB03569CF018
:1005D800000F18BF4EF0010EA4F1FF04B6F5007F1E
:1005E80064F5407404D25FEA4E0E6D4146EB060690
:1005F80042EAC62141EA55514FEAC52040EA5E5019
:100608004FEACE2EB4F1FD0C88BFBCF5E06F1ED8C2
:10061800BEF1004F08BF5FEA500E50F1000041EBF9
:10062800045170BD06F0004646EA010140EA0200A6
:1006380081EA0301B4EB5C04C2BFD4EB0C0541EAC8
:10064800045170BD41F480114FF0000E013C00F3DD
:10065800AB8014F1360FDEBF002001F0004170BD01
:10066800C4F10004203C35DA0C341BDC04F114041A
:10067800C4F1200500FA05F320FA04F001FA05F2A6
:1006880040EA020001F0004221F0004110EBD37073
:1006980021FA04F642EB06015EEA430E08BF20EA9F
:1006A800D37070BDC4F10C04C4F1200500FA04F342
:1006B80020FA05F001FA04F240EA020001F00041D4
:1006C80010EBD37041F100015EEA430E08BF20EA47
:1006D800D37070BDC4F1200500FA05F24EEA020E8F
:1006E80020FA04F301FA05F243EA020321FA04F0BE
:1006F80001F0004121FA04F220EA020000EBD37075
:100708005EEA430E08BF20EAD37070BD94F0000F74
:100718000FD101F00046400041EB010111F4801FA8
:1007280008BF013CF7D041EA060195F0000F18BF59
:10073800704703F00046520043EB030313F4801F95
:1007480008BF013DF7D043EA0603704794EA0C0F4F
:100758000CEA135518BF95EA0C0F0CD050EA410665
:1007680018BF52EA4306D1D181EA030101F00041E2
:100778004FF0000070BD50EA410606BF104619460A
:1007880052EA430619D094EA0C0F02D150EA013616
:1007980013D195EA0C0F05D152EA03361CBF104657
:1007A80019460AD181EA030101F0004141F0FE41F6
:1007B80041F470014FF0000070BD41F0FE4141F47A
:1007C800780170BD70B54FF0FF0C4CF4E06C1CEA7A
:1007D80011541DBF1CEA135594EA0C0F95EA0C0F2F
:1007E80000F0A7F8A4EB050481EA030E52EA0335EA
:1007F8004FEA013100F088804FEA03334FF080550B
:1008080045EA131343EA12634FEA022245EA111537
:1008180045EA10654FEA00260EF000419D4208BFE8
:10082800964244F1FD0404F5407402D25B084FEA95
:100838003202B61A65EB03055B084FEA32024FF441
:1008480080104FF4002CB6EB020E75EB030E22BF9E
:10085800B61A754640EA0C005B084FEA3202B6EB5E
:10086800020E75EB030E22BFB61A754640EA5C000D
:100878005B084FEA3202B6EB020E75EB030E22BF9D
:10088800B61A754640EA9C005B084FEA3202B6EB9E
:10089800020E75EB030E22BFB61A754640EADC005D
:1008A80055EA060E18D04FEA051545EA16754FEABF
:1008B80006164FEAC30343EA52734FEAC2025FEADD
:1008C8001C1CC0D111F4801F0BD141EA00014FF06C
:1008D80000004FF0004CB6E711F4801F04BF01433D
:1008E8000020B4F1FD0C88BFBCF5E06F3FF6AFAE59
:1008F800B5EB030C04BFB6EB020C5FEA500C50F1E9
:10090800000041EB045170BD0EF0004E4EEA11316B
:1009180014EB5C04C2BFD4EB0C0541EA045170BD72
:1009280041F480114FF0000E013C90E645EA060EB6
:100938008DE60CEA135594EA0C0F08BF95EA0C0FE4
:100948003FF43BAF94EA0C0F0AD150EA01347FF42C
:1009580034AF95EA0C0F7FF425AF104619462CE703
:1009680095EA0C0F06D152EA03353FF4FDAE104666
:10097800194622E750EA410618BF52EA43067FF4B7
:10098800C5AE50EA41047FF40DAF52EA43057FF447
:10099800EBAE12E74FF0FF3C06E000BF4FF0010C52
:1009A80002E000BF4FF0010C4DF804CD4FEA410CB6
:1009B8007FEA6C5C4FEA430C18BF7FEA6C5C1BD083
:1009C80001B050EA410C0CBF52EA430C91EA030F04
:1009D80002BF90EA020F0020704710F1000F91EA61
:1009E800030F58BF994208BF90422CBFD8176FEA2F
:1009F800E37040F0010070474FEA410C7FEA6C5CFD
:100A080002D150EA013C07D14FEA430C7FEA6C5C03
:100A1800D6D152EA033CD3D05DF8040B704700BF2F
:100A28008446104662468C461946634600E000BF7D
:100A380001B5FFF7B7FF002848BF10F1000F01BD4F
:100A48004DF808EDFFF7F4FF0CBF012000205DF81A
:100A580008FB00BF4DF808EDFFF7EAFF34BF01209F
:100A680000205DF808FB00BF4DF808EDFFF7E0FF38
:100A780094BF012000205DF808FB00BF4DF808ED89
:100A8800FFF7CEFF94BF012000205DF808FB00BFF0
:100A98004DF808EDFFF7C4FF34BF012000205DF8D2
:100AA80008FB00BF4FEA410C7FEA6C5C02D150EAB8
:100AB800013C0AD14FEA430C7FEA6C5C02D152EA4E
:100AC800033C02D14FF0000070474FF0010070471F
:100AD8004FEA410212F5001215D211D56FF478735E
:100AE800B3EB625212D94FEAC12343F0004343EA01
:100AF800505311F0004F23FA02F018BF40427047DC
:100B08004FF00000704750EA013005D111F0004065
:100B180008BF6FF0004070474FF00000704700BFFB
:100B28004A0011D212F5001211D20DD56FF4787364
:100B3800B3EB62520ED44FEAC12343F0004343EAB9
:100B4800505323FA02F070474FF00000704750EA04
:100B5800013002D14FF0FF3070474FF0000070476E
:100B680053B94AB9002908BF00281CBF4FF0FF310C
:100B78004FF0FF3000F07AB9ADF1080C6DE904CE02
:100B880000F006F8DDF804E0DDE9022304B0704760
:100B98002DE9F0478C460D460446089E002B51D19E
:100BA8008A4217466DD9B2FA82FEBEF1000F0BD009
:100BB800CEF1200C01FA0EF520FA0CFC02FA0EF721
:100BC8004CEA050C00FA0EF44FEA174A250CBCFB58
:100BD800FAF81FFA87F90AFB18CC45EA0C4508FB16
:100BE80009F3AB420AD9ED1908F1FF3280F02381ED
:100BF800AB4240F22081A8F102083D44ED1AA4B2AC
:100C0800B5FBFAF00AFB105544EA054400FB09F964
:100C1800A14509D9E41900F1FF3380F00A81A14503
:100C280040F2078102383C44A4EB090440EA08403A
:100C38000021002E61D024FA0EF400233460736082
:100C4800BDE8F0878B4207D9002E54D0002186E8F2
:100C580021000846BDE8F087B3FA83F1002940F087
:100C68008E80AB4202D3824200F2FA80841A65EB8E
:100C780003050120AC46002E3FD086E81010BDE8E1
:100C8800F08712B90127B7FBF2F7B7FA87FEBEF172
:100C9800000F34D1EB1B3A0C1FFA87FC0121B3FB80
:100CA800F2F8250C02FB183345EA03450CFB08F360
:100CB800AB4207D9ED1908F1FF3002D2AB4200F27E
:100CC800D1808046ED1AA3B2B5FBF2F002FB1055B5
:100CD80043EA05440CFB00FCA44507D9E41900F1DC
:100CE800FF3302D2A44500F2B8801846A4EB0C04E6
:100CF80040EA08409DE731463046BDE8F087CEF12E
:100D0800200405FA0EF307FA0EF720FA04F83A0C55
:100D180025FA04F448EA0308B4FBF2F14FEA18454F
:100D280002FB11441FFA87FC45EA044501FB0CF35A
:100D3800AB4200FA0EF409D9ED1901F1FF3080F049
:100D48008A80AB4240F2878002393D44EB1A1FFA91
:100D580088F5B3FBF2F002FB103345EA034500FBCC
:100D68000CF3AB4207D9ED1900F1FF386FD2AB4253
:100D78006DD902383D44EB1A40EA01418FE7C1F1D1
:100D8800200722FA07F88B4005FA01F448EA030322
:100D980020FA07FE4FEA134CFD404EEA040EB5FB5D
:100DA800FCF94FEA1E440CFB19551FFA83F844EA74
:100DB800054509FB08F4AC4202FA01F200FA01FA0F
:100DC80008D9ED1809F1FF3043D2AC4241D9A9F155
:100DD80002091D442D1B1FFA8EFEB5FBFCF00CFB0F
:100DE80010554EEA054400FB08F8A04507D9E41859
:100DF80000F1FF3529D2A04527D902381C4440EA22
:100E08000940A4EB0804A0FB02894C45C6464D46A0
:100E180015D312D056B1BAEB0E0364EB050404FAED
:100E280007F7CB401F43CC40376074600021BDE812
:100E3800F0871846F8E69046E0E6C245EAD2B8EBF5
:100E4800020E69EB03050138E4E72846D7E7404678
:100E580091E78146BEE7014678E702383C4445E71A
:100E6800084608E7A8F102083D442BE7704700BF91
:100E780038B50E4A0E4B054618784FF47A73B3FB13
:100E8800F0F31068B0FBF3F000F094F8044658B99A
:100E98000F2D09D8024629464FF0FF3000F04AF8D6
:100EA800044B20461D6038BD012038BD10000020CD
:100EB800000000200400002008B50B4B1A6842F41B
:100EC80000721A601A6842F480621A601A6842F462
:100ED80080721A60032000F01BF80020FFF7C8FF9B
:100EE80002F09EF9002008BD003C0240034A044B72
:100EF80011681B780B441360704700BF280200205C
:100F080000000020014B1868704700BF280200202D
:100F1800074AD36823F4E0631B041B0C43F0BF6348
:100F2800000243F4003300F4E0600343D3607047E9
:100F380000ED00E0174B30B5DC68C4F30224C4F1BF
:100F48000703251D042B28BF0423062D4FF0010598
:100F580005FA03F303F1FF338CBF033C0024194067
:100F6800A14005FA04F4013C2240002842EA0102AB
:100F78004FEA0212AFBF00F1604000F00F00064BCD
:100F8800D2B2A5BF00F56140D2B21A5480F800234E
:100F980030BD00BF00ED00E014ED00E04209012380
:100FA80000F01F0003FA00F0014B43F822007047DD
:100FB80000E100E00138B0F1807F0AD2064B074A11
:100FC8005860F02182F823100020072298601A60E8
:100FD80070470120704700BF10E000E000ED00E01E
:100FE800044B1A6804280CBF42F0040222F00402E1
:100FF8001A60704710E000E0704708B5FFF7FCFF83
:1010080008BD00002DE9F04F85B00B68DFF8A0811E
:10101800654ADFF8A091019300234FF0010E019C6F
:101028000EFA03FE0EEA0406B64540F0AA804C68A4
:1010380024F01007022F16D14FEAD30A00EB8A0AD0
:1010480003F0070BDAF820504FEA8B0B4FF00F0C28
:101058000CFA0BFC25EA0C0C0D6905FA0BF545EAB0
:101068000C05CAF820504FEA430A0325D0F800B00F
:1010780005FA0AF5ED4304F0030C0BEA050B0CFA2C
:101088000AFC013F4CEA0B0C012FC0F800C011D834
:10109800876807EA050BCF6807FA0AFC4CEA0B07D2
:1010A8008760476827EA0E0EC4F300179F4047EA97
:1010B8000E074760C7683D408F6807FA0AF73D4347
:1010C800C560E5005DD54FF0000BCDF80CB0D8F841
:1010D8004470364D47F48047C8F84470D8F84470D7
:1010E80007F480470397039F23F0030707F180471E
:1010F80007F59C3703F0030CD7F808A04FEA8C0CCF
:101108004FF00F0E0EFA0CFEA8422AEA0E0E3FD040
:1011180005F58065A8423DD005F58065A8423BD01D
:1011280005F58065A84239D005F58065A84237D015
:10113800484537D005F50065A84214BF07250625A0
:1011480005FA0CF545EA0E05BD601568F74314F479
:10115800803F0CBF3D4035431560556814F4003F8F
:101168000CBF3D4035435560956814F4801F0CBF93
:101178003D4035439560D568A40254BF3D40354392
:10118800D5600133102B7FF448AF05B0BDE8F08F70
:101198005D46D5E70125D3E70225D1E70325CFE74B
:1011A8000425CDE70525CBE7003C014000000240BF
:1011B80000380240001402400AB1816170470904F6
:1011C800FBE700002DE9F0410D46044610B9012067
:1011D800BDE8F081444B1A6802F00F028A4228D316
:1011E80021688F072DD4C80740D43F4B1A6802F0F6
:1011F8000F02954266D3226851076CD4130707D5AE
:101208003A4A2169936823F4604343EAC10393602F
:1012180000F098F8354B364A9B68C3F30313D35C48
:10122800D840344B18600020FFF722FE0020BDE8AC
:10123800F081CAB21A701B6803F00F039942C6D135
:10124800CEE72A4B11F0040F1EBF9A6842F4E05211
:101258009A600E0742BF9A6842F460429A609A68A0
:10126800A06822F0F00202439A60BCE762681F4B54
:10127800012A1DD11B6813F4003FA8D01B4EB36888
:1012880023F003031343B360FFF73CFE41F28838B1
:101298000746B368626803F00C03B3EB820FA4D06F
:1012A800FFF730FEC01B4045F3D90320BDE8F081AD
:1012B800911E01291B6802D813F0007FDDE713F0A7
:1012C800020FDAE7EAB21A701B6803F00F039D42B7
:1012D8007FF47DAF8FE70549E0688B6823F4E0531E
:1012E80003438B608AE700BF003C0240003802409D
:1012F8003063000810000020014B1868704700BFD9
:1013080010000020044B054A9B68C3F38223D35C7A
:10131800034A1068D840704700380240406300080C
:1013280010000020044B054A9B68C3F34233D35C8A
:10133800034A1068D84070470038024040630008EC
:1013480010000020204908B58B6803F00C03082B17
:1013580007D00C2B20D01D4A1D48042B18BF10465F
:1013680008BD4A684B68496813F4800314BF1848DD
:101378001648C1F3881118BF002302F03F02A1FBF1
:101388000001FFF7EDFB104B5B68C3F3014301332A
:101398005B00B0FBF3F008BD4A684B68496813F47A
:1013A800800314BF0A480948C1F3881118BF0023F5
:1013B80002F03F02A1FB0001FFF7D2FB024B5B6882
:1013C800C3F30273E5E700BF003802400024F400CD
:1013D80000127A0003682DE9F341DF07044610D4B0
:1013E80023689E0767D423681A0700F1B280236830
:1013F8005B0700F1D080A269002A40F03981002003
:101408001EE0974B9A6802F00C02042A10D09A68E2
:1014180002F00C02082A02D15B685D0208D4904BE6
:101428009A6802F00C020C2A0DD15A6850020AD5AB
:101438008B4B1B689903D3D56368002BD0D101204F
:1014480002B0BDE8F0816268B2F5803F11D11A6838
:1014580042F480321A60FFF755FD814D06462B682D
:101468009A03BDD4FFF74EFD801B6428F7D90320EB
:10147800E6E77B4DB2F5A02F2B6807D143F4802314
:101488002B602B6843F480332B60E4E723F480332C
:101498002B602B6823F480232B60002ADBD1FFF715
:1014A80031FD06462B689B039AD5FFF72BFD801B61
:1014B8006428F7D9DBE76A4B9A6812F00C0F10D052
:1014C8009A6802F00C02082A02D15B685F0208D50C
:1014D800634A936803F00C030C2B11D153685E0226
:1014E8000ED45F4B1A68950702D5E268012AA6D187
:1014F8001A68216922F0F80242EAC1021A6072E70A
:10150800E268584BB2B101221A60FFF7FBFC544D58
:1015180006462B68980707D52B68226923F0F8033D
:1015280043EAC2032B605EE7FFF7ECFC801B02284E
:10153800EFD99CE71A60FFF7E5FC494D06462B6892
:1015480099077FF550AFFFF7DDFC801B0228F6D91D
:101558008DE76269444B7AB101221A60FFF7D2FC29
:101568003F4D06466B6F9F073FF541AFFFF7CAFC3B
:10157800801B0228F6D97AE71A60FFF7C3FC384DBA
:1015880006466B6F98077FF532AFFFF7BBFC801BF1
:101598000228F6D96BE7324B1A6C12F0805228D128
:1015A80001921A6C42F080521A641B6C03F080534B
:1015B8000193019B01262D4D2B68D9051BD5A368E6
:1015C800274D012B27D12B6F43F001032B67FFF722
:1015D80099FC234D074641F288382B6F9B0739D574
:1015E800002E3FF408AF1E4A136C23F08053136497
:1015F80001E70026DFE72B6843F480732B60FFF7D1
:1016080081FC07462B68DA05D9D4FFF77BFCC01BA1
:101618000228F7D92BE7052B04D12B6F43F00403DD
:101628002B67D0E72A6F22F001022A672A6F22F07F
:1016380004022A67002BCAD1FFF764FC41F28838FC
:1016480007462B6F9807CBD5FFF75CFCC01B4045BE
:10165800F7D90CE7FFF756FCC01B4045BDD906E794
:101668000038024000004742800E474200700040A8
:10167800234DAB6803F00C03082B3FF4E0AE214E7A
:101688000023022A33602DD1FFF73CFC07462B6864
:10169800990121D4226AE3691343626A43EA8213F7
:1016A800E26A43EA0263226B43EA0273A26A144CB9
:1016B8005208013A43EA02436B6001233360FFF7A3
:1016C80021FC054623689A013FF599AEFFF71AFCFD
:1016D800401B0228F6D9CAE6FFF714FCC01B0228F3
:1016E800D5D9C4E6FFF70EFC04462B689B017FF5AD
:1016F80086AEFFF707FC001B0228F6D9B7E600BF45
:10170800003802406000474210B50446002836D031
:101718000023836290F8513003F0FF021BB980F870
:10172800502001F0C5FD2168A068A269022384F851
:1017380051300B6823F040030B6063680343E06893
:1017480003432069034360690343E0690343206A54
:101758000343A06A034302F4007003430B60120CB6
:10176800636A02F004021A434A60CB6923F40063F7
:10177800CB6100200123606584F8513010BD012041
:1017880010BD0000036A23F001030362036A426884
:1017980070B584690D6824F0730425438C6823F0C0
:1017A800020323430C4CA04209D004F58064A042F4
:1017B80005D042604A6885614263036270BDCC68A7
:1017C8008E6923F0080323434C6922F440723443A2
:1017D80023F004032243ECE700000140036A23F4EA
:1017E80080730362036A426870B5C4690D6824F0A7
:1017F800730425438C6823F4007343EA04230E4CD6
:10180800A04209D004F58064A04205D042604A682D
:10181800C561C263036270BDCC688E6923F400633E
:1018280043EA04234C6922F44052344323F480638E
:1018380042EA0412EAE700BF00000140036A23F409
:101848008053036230B5046A4368C2690D6822F4A4
:10185800E64242EA05228D6824F4005444EA05343D
:10186800094DA84209D005F58065A84205D0436016
:101878004B68C2610364046230BD4D6923F4804340
:1018880043EA8513F3E700BF000001400368DA6804
:1018980042F00102DA601A6842F001021A60002080
:1018A80070477047704770477047704703681A69F8
:1018B800910710B504460ED5DA6892070BD56FF07C
:1018C80002021A619B6901229B07027677D0FFF713
:1018D800EAFF0023237623681A69500710D5DA68CF
:1018E80051070DD56FF004021A619B69022213F4A7
:1018F800407F2276204668D0FFF7D5FF0023237665
:1019080023681A6912070FD5DA6810070CD56FF02B
:1019180008021A61DB6904229907227620465AD008
:10192800FFF7C1FF0023237623681A69D20610D572
:10193800DA68D0060DD56FF010021A61DB6908224B
:1019480013F4407F227620464BD0FFF7ACFF0023EC
:10195800237623681A69D10708D5DA68D20705D52E
:101968006FF001021A612046FFF79BFF23681A698E
:10197800100608D5DA68110605D56FF080021A61DD
:10198800204600F0CEF923681A69520608D5DA68AD
:10199800500605D56FF040021A612046FFF785FF13
:1019A80023681A69910622D5DA6892061FD56FF066
:1019B800200220461A61BDE8104000F0B1B9FFF7D7
:1019C80071FF2046FFF770FF83E7FFF76BFF2046A4
:1019D800FFF76AFF92E7FFF765FF2046FFF764FF0E
:1019E800A0E7FFF75FFF2046FFF75EFFAFE710BDF8
:1019F8002E4A0368904212D0B0F1804F0FD0A2F562
:101A08007C4290420BD002F58062904207D002F5EA
:101A18008062904203D002F5784290421DD14A6814
:101A280023F070031343214A904204D1CA6823F477
:101A38004073134328E0B0F1804FF7D01C4A90421E
:101A4800F4D002F580629042F0D002F580629042B4
:101A5800ECD002F578429042E8D0164A9042E5D0A0
:101A680002F580629042E1D002F580629042DDD0BA
:101A7800A2F598329042D9D002F580629042D5D032
:101A880002F580629042D1D003608B68C3620B6814
:101A98008362064B984206D003F58063984202D0D1
:101AA8000123436170470B690363F9E700000140B4
:101AB800000400400040014010B50446A0B190F871
:101AC800393003F0FF021BB980F8382001F062FCBE
:101AD800022384F839302068211DFFF789FF01238C
:101AE80084F83930002010BD012010BD10B504461F
:101AF800A0B190F8393003F0FF021BB980F8382004
:101B080001F0FCFB022384F839302068211DFFF71F
:101B18006FFF012384F83930002010BD012010BD6B
:101B2800036A23F010030362036A426870B584698C
:101B38000D6824F4E64444EA05258C6823F0200364
:101B480043EA04130D4CA04209D004F58064A04276
:101B580005D042604A6885618263036270BDCC68C3
:101B68008E6923F0800343EA04134C6922F440622F
:101B7800344323F0400342EA8402EAE700000140CC
:101B880038B590F83830012B04464FF0020025D0C4
:101B9800012384F8383084F839000C2A18D8DFE893
:101BA80002F0071717171E1717172F1717174000D8
:101BB8002068FFF7E7FD236809699A6942F008027F
:101BC8009A619A6922F004029A619A690A439A61B1
:101BD8000123002084F8393084F8380038BD2068A3
:101BE800FFF79EFF236809699A6942F400629A61C7
:101BF8009A6922F480629A619A6942EA0122E6E7C8
:101C08002068FFF7EBFD23680969DA6942F00802EA
:101C1800DA61DA6922F00402DA61DA690A43DA6120
:101C2800D6E72068FFF70AFE23680969DA6942F4F3
:101C38000062DA61DA6922F48062DA61DA6942EA1A
:101C48000122ECE7036A10B501248C4023EA04035F
:101C58000362036A8A401A43026210BD10B5044643
:101C680001220068FFF7EEFF2368084A934203D079
:101C780002F58062934203D15A6C42F400425A64DE
:101C88001A6842F001021A60002010BD00000140ED
:101C980090F83830012B10B54FF0020318D080F8B7
:101CA800393003680C685A68496822F070025A6033
:101CB8005A6822435A609A6822F080029A609A68A9
:101CC8000A439A60012380F83930002380F83830BD
:101CD800184610BD90F83830012B1FD0CB688A68A1
:101CE80023F4407313434A6823F4806313430A6858
:101CF80023F4006313430A6923F4805313434A69A6
:101D080023F4005313438A6923F4404313430268BE
:101D18005364002380F83830184670470220704713
:101D2800704770472DE9F0470668C2683369C16992
:101D380023F4405313433361044683680069F2680F
:101D48000343606922F41642034322F00C020B435A
:101D58001343F3607369A26923F440731343B1F525
:101D6800004F73617A4B7CD19E4203D003F58063A8
:101D78009E4244D1FFF7D6FA192505FB00F36068A7
:101D88004FF064094000B3FBF0F3B3FBF9F34FEAFB
:101D98000318FFF7C7FA636868435B00B0FBF3F703
:101DA800FFF7C0FA636868435B00B0FBF3F3B3FB6B
:101DB800F9F309FB1373DB003233B3FBF9F35B0070
:101DC80003F4F877FFF7AEFA626868435200B0FB95
:101DD800F2FAFFF7A7FA636868435B00B0FBF3F316
:101DE800B3FBF9F309FB13A3DB003233B3FBF9F3BD
:101DF80003F0070343443B44B360BDE8F087FFF7B3
:101E080081FA192505FB00F360684FF0640940006A
:101E1800B3FBF0F3B3FBF9F34FEA0318FFF772FAD9
:101E2800636868435B00B0FBF3F7FFF76BFA63681E
:101E380068435B00B0FBF3F3B3FBF9F309FB1373DF
:101E4800DB003233B3FBF9F35B0003F4F877FFF7F9
:101E580059FA626868435200B0FBF2FAFFF752FA87
:101E6800B9E79E4202D03B4B9E4240D1FFF75AFA57
:101E7800676819254FF0640905FB00F3BF00B3FB41
:101E8800F7F3B3FBF9F31F01FFF74CFA63686843F4
:101E98009B00B0FBF3F8FFF745FA636868439B00C3
:101EA800B0FBF3F3B3FBF9F309FB13831B013233E4
:101EB800B3FBF9F303F0F008FFF734FA62686843FC
:101EC8009200B0FBF2FAFFF72DFA636868439B00B3
:101ED800B0FBF3F3B3FBF9F309FB13A31B01323394
:101EE800B3FBF9F303F00F0343EA080383E7FFF7B3
:101EF80009FA676819254FF0640905FB00F3BF006C
:101F0800B3FBF7F3B3FBF9F31F01FFF7FBF96368C2
:101F180068439B00B0FBF3F8FFF7F4F96368684384
:101F28009B00B0FBF3F3B3FBF9F309FB13831B012D
:101F38003233B3FBF9F303F0F008FFF7E3F9626813
:101F480068439200B0FBF2FAFFF7DCF9BDE700BF87
:101F5800001001400014014010B5044640B390F849
:101F6800393003F0FF021BB980F8382001F092FAEB
:101F78002268242384F83930D36823F40053D360CB
:101F88002046FFF7CFFE23681A6922F490421A61AF
:101F98005A6922F02A025A61DA6842F40052DA6079
:101FA80000202023E06384F8393084F83A3010BDEB
:101FB800012010BD000000001FB5234B51EC100B91
:101FC8001C681BA3D3E900238DED002B8DED021BAC
:101FD800FEF7CEFA00221D4BFEF718F9FEF7A0FD1A
:101FE8009DED021B1A4BA06351EC110B1C6812A348
:101FF800D3E90023FEF7BCFA0022164BFEF706F9D8
:10200800FEF78EFD9DED002B134B606351EC120B18
:102018001C680BA3D3E90023FEF7AAFA00220F4B92
:10202800FEF7F4F8FEF77CFDA06304B010BD00BF16
:102038000A4AC0476CFE734045864944E31774401A
:10204800D5FE3E78EA9972407002002000E8874089
:102058002C02002000588640C802002000708740EB
:102068001FB5214B51EC100B1C681BA3D3E90023AF
:102078008DED002B8DED021BFEF77AFA00221B4B2B
:10208800FEF7C4F8FEF74CFD9DED021B184B2064CB
:1020980051EC110B1C6812A3D3E90023FEF768FA70
:1020A8000022144BFEF7B2F8FEF73AFD9DED002B27
:1020B800114B206451EC120B1C6809A3D3E90023CF
:1020C800FEF756FA00220D4BFEF7A0F8FEF728FDA2
:1020D800206404B010BD00BF0A4AC0476CFE73C03C
:1020E8004B775171D8CC72407002002000E88740CD
:1020F8005C03002000308640C802002000C08740F2
:102108001FB5234B51EC100B1C681BA3D3E900230C
:102118008DED002B8DED021BFEF72AFA00221D4BD8
:10212800FEF774F8FEF7FCFC9DED021B1A4BE0630A
:1021380051EC110B1C6812A3D3E90023FEF718FA1F
:102148000022164BFEF762F8FEF7EAFC9DED002B25
:10215800A0630DA3D3E9002351EC120BFEF708FA94
:1021680000220F4BFEF752F8FEF7DAFC606304B06A
:1021780010BD00BFAFF300800A4AC0476CFE734031
:10218800FB2BED663D1973C04B775171D8CC72C0EB
:1021980070020020005886405C0300200030864012
:1021A80000D086400000000030B5214B85B051ECCE
:1021B800100B1C681AA3D3E900238DED002B8DEDBD
:1021C800021BFEF7D5F900221A4BFEF71FF8FEF79F
:1021D800A7FC9DED021B184BE0631D6851EC110B29
:1021E80011A3D3E90023FEF7C3F90022134BFEF72E
:1021F8000DF8FEF795FC9DED002B68630AA3D3E963
:10220800002351EC120BFEF7B3F900220C4BFDF73B
:10221800FDFFFEF785FC206405B030BDAFF30080FC
:102228008AEF9DF4936176C0103BC87461B372C0A5
:102238002C02002000008E407002002000C0874061
:1022480000108840000000002DE9F04F2DED028BB2
:1022580057EC106B85B010EE102A10EE100A3B46B2
:10226800394655EC124B5BEC11ABFEF781F952463F
:10227800804689465B4650465946FEF779F902463C
:102288000B4640464946FDF7C1FF2246804689462F
:102298002B4620462946FEF76BF902460B46404678
:1022A8004946FDF7B3FF88A3D3E90023FDF7ACFF48
:1022B80087A3D3E90023FDF7A7FF87A3D3E900236A
:1022C800FDF7A2FF00227E4BFEF752F972A3D3E975
:1022D8000023FEF777FA72A3D3E90023FEF772FA18
:1022E80002460B4680468946FEF742F902460B46EF
:1022F80000207449FDF788FF024621F0004343ECB3
:10230800102B02F06FFC51EC100B10EE102A01F1AB
:10231800004349EC118B43EC102B02F061FCB0EE4A
:10232800408AF0EE608A02F0CFFB59EC108B10EE79
:10233800100A5DA3D3E900234946FEF719F95CA307
:10234800D3E90023FDF762FF024621F0004343EC86
:10235800102B02F047FC304653EC102B07F10041DC
:10236800FEF730FA02460B4606460F46FEF700F91E
:1023780002460B4600205349FDF746FF024621F06E
:10238800004343EC102B02F02DFCB0EE401AF0EEA7
:10239800601A47EC106B02F023FC57EC106BB0EEA0
:1023A800480AF0EE680A02F0D3FB3DA3D3E9002304
:1023B800404649468DED020BFEF7DAF836A3D3E91D
:1023C8000023FDF723FF9DED020BCDE9000134A3A7
:1023D800D3E9002351EC100BFEF7CAF89DED001B62
:1023E80041EC100B02F0FCFB304653EC102B394645
:1023F800FDF70AFF224605F1004343EC112B4BEC95
:1024080010AB06460F4602F0EBFB55EC104B47ECC1
:10241800106B02F059FB32463B4651EC180B59EC55
:10242800108BFDF7F3FE41EC100B02F04DFB1AA3E5
:10243800D3E90023404649468DED000BFEF798F896
:102448009DED000B8046894615A3D3E9002351EC86
:10245800100BFEF78DF802460B4640464946FDF73D
:10246800D5FE9FED150B41EC110B02F0B9FB204690
:1024780053EC102B2946FDF7C7FEB0EE482AF0EEC4
:10248800682A47EC116B41EC100B05B0BDEC028BD0
:10249800BDE8F04FFFF790BDF6285C8FC2754E403F
:1024A8001F85EB51B85E5840C139234A7B32C7407B
:1024B8002141F163CCCEC9406666666666C64D406A
:1024C8000000E03F0000F03FE17A14AE67B4AB4093
:1024D800780B24287EFEAC40433EE8D92C8FC240BE
:1024E8002DE9F04F2DED028B57EC106B85B010EEF7
:1024F800102A10EE100A3B46394655EC124B5BEC9D
:1025080011ABFEF735F85246804689465B46504681
:102518005946FEF72DF802460B4640464946FDF758
:1025280075FE2246804689462B4620462946FEF7F8
:102538001FF802460B4640464946FDF767FE88A34A
:10254800D3E90023FDF760FE87A3D3E90023FDF755
:102558005BFE87A3D3E90023FDF756FE00227E4BDE
:10256800FEF706F872A3D3E90023FEF72BF972A34E
:10257800D3E90023FEF726F902460B468046894632
:10258800FDF7F6FF02460B4600207449FDF73CFEB6
:10259800024621F0004343EC102B02F023FB51ECE0
:1025A800100B10EE102A01F1004349EC118B43EC9B
:1025B800102B02F015FBB0EE408AF0EE608A02F0B4
:1025C80083FA59EC108B10EE100A5DA3D3E90023AF
:1025D8004946FDF7CDFF5CA3D3E90023FDF716FEBE
:1025E800024621F0004343EC102B02F0FBFA304680
:1025F80053EC102B07F10041FEF7E4F802460B46B6
:1026080006460F46FDF7B4FF02460B460020534925
:10261800FDF7FAFD024621F0004343EC102B02F0CF
:10262800E1FAB0EE401AF0EE601A47EC106B02F0D7
:10263800D7FA57EC106BB0EE480AF0EE680A02F0D1
:1026480087FA3DA3D3E90023404649468DED020BA6
:10265800FDF78EFF36A3D3E90023FDF7D7FD9DEDE7
:10266800020BCDE9000134A3D3E9002351EC100B90
:10267800FDF77EFF9DED001B41EC100B02F0B0FA58
:10268800304653EC102B3946FDF7BEFD224605F1C6
:10269800004343EC112B4BEC10AB06460F4602F0FF
:1026A8009FFA55EC104B47EC106B02F00DFA3246CE
:1026B8003B4651EC180B59EC108BFDF7A7FD41EC8C
:1026C800100B02F001FA1AA3D3E900234046494649
:1026D8008DED000BFDF74CFF9DED000B8046894604
:1026E80015A3D3E9002351EC100BFDF741FF024677
:1026F8000B4640464946FDF789FD9FED150B41EC19
:10270800110B02F06DFA204653EC102B2946FDF709
:102718007BFDB0EE482AF0EE682A47EC116B41ECDD
:10272800100B05B0BDEC028BBDE8F04FFFF798BC6D
:10273800F6285C8FC2754E401F85EB51B85E584035
:10274800C139234A7B32C7402141F163CCCEC9400D
:102758006666666666C64D400000E03F0000F03FD2
:10276800E17A14AE67B4AB40780B24287EFEAC4007
:10277800433EE8D92C8FC2402DE9F04F57EC106B3F
:1027880087B010EE102A10EE100A3B46394655EC79
:10279800124B5BEC11ABFDF7EBFE524680468946C7
:1027A8005B4650465946FDF7E3FE02460B46404657
:1027B8004946FDF72BFD2246804689462B46204692
:1027C8002946FDF7D5FE02460B4640464946FDF729
:1027D8001DFD85A3D3E90023FDF716FD84A3D3E9E6
:1027E8000023FDF711FD84A3D3E90023FDF70CFDB9
:1027F80000227B4BFDF7BCFE6FA3D3E90023FDF756
:10280800E1FF6FA3D3E90023FDF7DCFF02460B4687
:1028180080468946FDF7ACFE02460B46002071490A
:10282800FDF7F2FC024621F0004343EC102B02F0C6
:10283800D9F949EC118B02F0D3F98DED000B019B0E
:10284800DDF8008003F1004902F03EF95EA3D3E908
:10285800002351EC100B8DED020BFDF789FE5CA3F4
:10286800D3E90023FDF7D2FC024621F0004343ECF4
:10287800102B02F0B7F9304653EC102B07F100414A
:10288800FDF7A0FF02460B4606460F46FDF770FE11
:1028980002460B4600205349FDF7B6FC024621F0DC
:1028A800004343EC102B02F09DF9B0EE401AF0EE15
:1028B800601A47EC106B02F093F957EC106B49EC77
:1028C800108B02F045F9DDE902013DA3D3E90023AD
:1028D8008DED040BFDF74CFE37A3D3E90023FDF77C
:1028E80095FC9DED040BCDE9020135A3D3E9002346
:1028F80051EC100BFDF73CFE9DED021B41EC100B5B
:1029080002F06EF9304653EC102B3946FDF77CFC8B
:10291800524606460F46204605F100410BF100439A
:1029280041EC110B43EC102B02F05AF95BEC10ABA5
:1029380047EC106B02F0C8F8DDE900233046394651
:1029480055EC104BFDF760FC41EC100B02F0BCF8A5
:1029580019A3D3E90023204629468DED000BFDF786
:1029680007FE9DED000B04460D4615A3D3E9002391
:1029780051EC100BFDF7FCFD02460B46204629469C
:10298800FDF744FC9FED140B41EC110B02F028F904
:10299800504653EC102B5946FDF736FC49EC128B88
:1029A80047EC116B41EC100B07B0BDE8F04FFFF797
:1029B800A7BB00BFAFF30080F6285C8FC2754E40FE
:1029C8001F85EB51B85E5840C139234A7B32C74056
:1029D8002141F163CCCEC9406666666666C64D4045
:1029E8000000E03F0000F03FE17A14AE67B4AB406E
:1029F800780B24287EFEAC40433EE8D92C8FC24099
:102A08002DE9F04F57EC106B87B010EE102A10EE3E
:102A1800100A3B46394655EC124B5BEC11ABFDF7FF
:102A2800A7FD5246804689465B4650465946FDF703
:102A38009FFD02460B4640464946FDF7E7FB224606
:102A4800804689462B4620462946FDF791FD0246D9
:102A58000B4640464946FDF7D9FB85A3D3E9002339
:102A6800FDF7D2FB84A3D3E90023FDF7CDFB84A3B4
:102A7800D3E90023FDF7C8FB00227B4BFDF778FD67
:102A88006FA3D3E90023FDF79DFE6FA3D3E90023CD
:102A9800FDF798FE02460B4680468946FDF768FD1D
:102AA80002460B4600207149FDF7AEFB024621F0B5
:102AB800004343EC102B02F095F849EC118B02F01F
:102AC8008FF88DED000B019BDDF8008003F10049C4
:102AD80001F0FAFF5EA3D3E9002351EC100B8DED52
:102AE800020BFDF745FD5CA3D3E90023FDF78EFB40
:102AF800024621F0004343EC102B02F073F83046F5
:102B080053EC102B07F10041FDF75CFE02460B4623
:102B180006460F46FDF72CFD02460B46002053499A
:102B2800FDF772FB024621F0004343EC102B02F044
:102B380059F8B0EE401AF0EE601A47EC106B02F04C
:102B48004FF857EC106B49EC108B02F001F8DDE9F7
:102B580002013DA3D3E900238DED040BFDF708FD29
:102B680037A3D3E90023FDF751FB9DED040BCDE915
:102B7800020135A3D3E9002351EC100BFDF7F8FC53
:102B88009DED021B41EC100B02F02AF8304653EC85
:102B9800102B3946FDF738FB524606460F462046AD
:102BA80005F100410BF1004341EC110B43EC102BF4
:102BB80002F016F85BEC10AB47EC106B01F084FFE9
:102BC800DDE900233046394655EC104BFDF71CFB78
:102BD80041EC100B01F078FF19A3D3E9002320463C
:102BE80029468DED000BFDF7C3FC9DED000B044657
:102BF8000D4615A3D3E9002351EC100BFDF7B8FCE3
:102C080002460B4620462946FDF700FB9FED140BB4
:102C180041EC110B01F0E4FF504653EC102B5946E0
:102C2800FDF7F2FA49EC128B47EC116B41EC100BF3
:102C380007B0BDE8F04FFFF7B7BA00BFAFF30080A9
:102C4800F6285C8FC2754E401F85EB51B85E584020
:102C5800C139234A7B32C7402141F163CCCEC940F8
:102C68006666666666C64D400000E03F0000F03FBD
:102C7800E17A14AE67B4AB40780B24287EFEAC40F2
:102C8800433EE8D92C8FC240F0B555EC144B8FB0B9
:102C980053EC102B14EE100A29468DED003B8DEDF8
:102CA800022B8DED041BFDF763FC22462B46FDF736
:102CB8005FFC22462B46FDF75BFC9DED041B064698
:102CC80053EC112B0F4620462946FDF751FC2246AE
:102CD8002B46FDF74DFC02460B4630463946FDF7BC
:102CE80095FA9DED022B064653EC122B0F46204613
:102CF8002946FDF73DFC02460B4630463946FDF7AE
:102D080085FA9DED003B53EC132BFDF77FFA41EC60
:102D1800100B0FB0F0BD00002DE9F04F5BEC10ABCD
:102D280055EC114B95B010EE102A10EE100A5B46C8
:102D3800594657EC126B8DED003BFDF767FA2246BA
:102D48002B46FDF763FA3246804689463B463046B5
:102D58003946FDF75BFA02460B4640464946FDF701
:102D680053FADDE90023FDF751FA0022CDE902010B
:102D7800174B50465946FDF7FBFB224680468946CD
:102D88002B4620462946FDF741FA02460B464046A7
:102D98004946FDF739FA0022804689460D4B3046F0
:102DA8003946FDF7E5FB02460B4640464946FDF726
:102DB8002DFADDE90023FDF727FA9DED020B41EC22
:102DC800110B45EC124B4BEC13AB15B0BDE8F08F73
:102DD800000008C00000084030B595B00022274B1D
:102DE8000092196C41F0805119641B6C244903F05E
:102DF80080530093009B01920B6823F4404343F4F3
:102E080080430B600B680E9203F440430193019BCF
:102E180001230A93102302240B930F9304254FF4E4
:102E2800A87307A807940D941093119512941394FE
:102E3800FEF7D0FA00B1FEE70F23029304904FF497
:102E480080530690214602A803940593FEF7BAF929
:102E5800044600B1FEE7FEF74FFA4FF47A73B0FB71
:102E6800F3F0FEF7A7F82846FEF7BAF822462146FF
:102E78004FF0FF30FEF75EF815B030BD0038024065
:102E88000070004080B594B00024FEF715F8FFF7F5
:102E9800A3FF964B00941A6B954842F004021A63FC
:102EA8001A6B02F004020092009A01941A6B42F025
:102EB80080021A631A6B02F080020192019A02944E
:102EC8001A6B42F001021A631A6B02F001020292B5
:102ED800029A03941A6B42F002021A631B6B03F006
:102EE8000203224603934FF480610125039B4FF4AC
:102EF8000056FEF761F97F4B7D480E930DA90D969C
:102F08000F95FEF77FF80D230DA979480D930E94C0
:102F18000F95FEF777F84FF480630DA974480D9369
:102F28000E950F941094FEF76DF8734873498460FA
:102F38004FF4E1330C2780E80A00C460046147615C
:102F48008461C461FFF708F800B1FEE76C4B6D4A75
:102F58001A6058609860D860186158619861186262
:102F6800586298620A221846DA62FEF7CDFB00B171
:102F7800FEE7654C654BA0604FF0A80942F20F7858
:102F880020616061204684E80802C4F80C80FEF7DE
:102F9800ADFD00B1FEE70490059004A92046FEF7B8
:102FA80077FE00B1FEE760250790089009900A9027
:102FB8000B900C90042206A920460695FEF7E0FD2A
:102FC80000B1FEE73A4606A92046FEF7D9FD00B152
:102FD800FEE70D900E900F901090119013900DA990
:102FE80020461296FEF776FE064600B1FEE720461A
:102FF800474C00F0EDF94FF08043204684E8080282
:10300800A660C4F80C802661FEF770FD00B1FEE7EB
:103018000690079006A92046FEF73AFE024600B140
:10302800FEE70E900F9011900DA920460D95FEF722
:10303800A7FD00B1FEE704220DA93548FEF7A0FD63
:1030480000B1FEE70C220DA93148FEF799FD0546AF
:1030580000B1FEE72F4C2E4800F0BAF92E4BA560C0
:10306800A82742F20F76204684E88800E6602561AA
:10307800FEF73CFD00B1FEE70690079006A9204642
:10308800FEF706FE024600B1FEE760230E900F90A1
:1030980011900DA920460D93FEF772FD00B1FEE7D1
:1030A80004220DA92046FEF76BFD00B1FEE70822B9
:1030B8000DA92046FEF764FD00B1FEE70C220DA91C
:1030C8002046FEF75DFD054600B1FEE72046134C9D
:1030D80000F07EF9124BA560204684E88800E6607F
:1030E8002561FEF703FDE8B1FEE700BF00380240A6
:1030F800000802400000211098030020004400400E
:103108000403002000300140C802002000000140F4
:103118005C03002070020020000400402C02002004
:10312800000800400690079006A92046FEF7B0FD6B
:1031380000B1FEE7002260230DA933480D930E92DB
:103148000F921192FEF71CFD00B1FEE708220DA9AF
:103158002D48FEF715FD00B1FEE70C220DA92A48FF
:10316800FEF70EFD054600B1FEE72748274C00F0A4
:103178002FF9274AA56040F2E73384E80C0020467F
:103188004FF45273E360FEF797FC00B1FEE70D9031
:103198000E900DA92046FEF77BFD054600B1FEE71F
:1031A80004211C48FEF75AFD0C211A48FEF756FD6B
:1031B80029461948FEF752FD04211748FEF74EFD2F
:1031C8000C211548FEF74AFD29461448FEF746FD2E
:1031D80004211248FEF742FD08211048FEF73EFD83
:1031E8000C210E48FEF73AFD29460748FEF736FD42
:1031F80008210548FEF732FD0C210348FEF72EFD95
:103208002046FEF743FBFEE72C020020D8030020EF
:1032180000140040C80200205C0300207002002057
:1032280013B5224B002400945A6C42F480425A642D
:103238005A6C02F480420092009A01941A6C42F08F
:1032480080521A641B6C03F0805301930720019B82
:10325800FDF75EFE224621466FF00B00FDF76AFE81
:10326800224621466FF00A00FDF764FE22462146F9
:103278006FF00900FDF75EFE224621466FF004005C
:10328800FDF758FE224621466FF00300FDF752FE77
:10329800224621466FF00100FDF74CFE22462146EA
:1032A8004FF0FF30FDF746FE02B010BD0038024077
:1032B8007FB502680F4B9A4219D1002103F5843378
:1032C80000915A6C0C4842F480525A645B6C03912A
:1032D80003F480530093009BF0230193022302938D
:1032E8000323049301A905230593FDF78BFE07B07B
:1032F8005DF804FB00300140000002400368214AE9
:10330800934284B00DD1002300931F4B5A6C42F0B6
:1033180001025A645B6C03F001030093009B04B044
:103328007047B3F1804F0CD100230193164B1A6CF0
:1033380042F001021A641B6C03F001030193019B24
:10334800EDE7124A93420CD1002302930E4B1A6CFC
:1033580042F002021A641B6C03F002030293029B00
:10336800DDE70B4A9342DAD100230393064B1A6C2C
:1033780042F004021A641B6C03F004030393039BDA
:10338800CDE700BF000001400038024000040040C3
:103398000008004007B50D4B02689A4213D103F5A7
:1033A8000933002101911A6C42F020021A641B6C47
:1033B80003F02003019337200122019BFDF7BAFD9A
:1033C8003720FDF7EBFD03B05DF804FB0014004067
:1033D80070B50368294A934286B00FD14FF4206331
:1033E80001930223029300230393049324480123A7
:1033F800059301A9FDF706FE06B070BDB3F1804F35
:1034080016D1002403230226012501A91C48019393
:103418000296039404940595FDF7F4FD04230193A3
:1034280002960394049405950DEB03011548E1E712
:10343800154A934214D102240025032301A91148F7
:1034480001930294039504950594FDF7DBFDC023D1
:103458000193029403950495059401A90B48C9E7C3
:103468000B4A9342C8D14FF45073002201930223B0
:10347800029303920492059301A9D7E70000014043
:10348800000002400004024000040040000802401E
:10349800000800407FB502680F4B9A4219D10023FB
:1034A80000930E4B0E481A6C42F400321A641B6CDF
:1034B80003F400330093009B0C230193022302932F
:1034C800012303930323049301A907230593FDF71D
:1034D80099FD07B05DF804FB004400400038024045
:1034E800000002407047FEE7FEE7FEE7FEE7704790
:1034F8007047704708B5FDF7F9FCBDE80840FDF7CF
:103508007CBD0000000000002DE9F84FEC4B1A6864
:1035180012F0010F2DED048B9B4640F09682E94C8A
:10352800E94BEA4FEA4EEB4DD4E9008900224046C8
:103538004946FDF78FFAA246E74C002800F0B8820A
:10354800C1A3D3E9002340464946FDF783FA002882
:1035580000F0EA809FEDBE3B9FEDBF2BB0EE431A13
:10356800F0EE631A9FEDBE0BFFF7D6FB87ED000B5D
:1035780087ED021B9FEDBC0B9FEDB51B87ED042B60
:1035880087ED063B9FEDBA2B9FEDBB3BFFF7C4FBD6
:1035980087ED0E3B9FEDB83B87ED080B87ED0A1BC7
:1035A800B0EE431AF0EE631A9FEDB50B87ED0C2BC6
:1035B8009FEDB52BFFF7B0FB87ED163B9FEDA43BC6
:1035C80087ED100B87ED121BB0EE431AF0EE631A6D
:1035D8009FEDA10B87ED142B9FEDAD2BFFF79CFB07
:1035E80086ED000B86ED021B9FED9F0B9FED981B50
:1035F80086ED042B86ED063B9FED9D2B9FED9E3BB4
:10360800FFF78AFB86ED0C2B86ED0E3B9FED9E2B7C
:103618009FED993B86ED080BB0EE420AF0EE620A88
:1036280086ED0A1BB0EE431AF0EE631AFFF774FB3F
:1036380086ED163B9FED863B86ED100B86ED121B43
:10364800B0EE431AF0EE631A9FED910B86ED142B42
:103658009FED912BFFF760FB84ED000B84ED021BBF
:103668009FED8F0B9FED7A1B84ED042B84ED063BB9
:103678009FED8D2B9FED803BFFF74EFB84ED0C2BD0
:1036880084ED0E3B9FED802B9FED7B3B84ED080B7B
:10369800B0EE420AF0EE620A84ED0A1BB0EE431A5D
:1036A800F0EE631AFFF738FB84ED163B9FED723B93
:1036B80084ED100B84ED121BB0EE431AF0EE631A82
:1036C8009FED750B84ED142B9FED652BFFF724FB05
:1036D80085ED000B85ED021B9FED710B9FED5C1BCB
:1036E80085ED042B85ED063B9FED6F2B9FED623B2F
:1036F800FFF712FB85ED080B85ED0A1B85ED0C2BFA
:1037080085ED0E3B9FED5E2B9FED693B9FED6A1BA0
:103718009FED5D0BFFF700FB85ED100B85ED121B90
:1037280085ED142B85ED163B00226C4BDAE9000180
:10373800FCF71EFF97ED021B41EC140B97ED042BD1
:1037480097ED063B97ED000BFFF79EFA0022634BBF
:10375800B0EE408AF0EE608ADAE90001FCF708FF73
:1037680097ED0A1B41EC140B97ED0C2B97ED0E3BD4
:1037780097ED080BFFF788FA0022584BB0EE409AF5
:10378800F0EE609ADAE90001FCF7F2FE97ED163BDD
:1037980041EC140B97ED121B97ED142B97ED100BC2
:1037A800FFF772FAB0EE491AF0EE691AB0EE402A45
:1037B800F0EE602AB0EE480AF0EE680AFEF744FD23
:1037C8000022464BDAE90001FCF7D2FE96ED021B17
:1037D80041EC140B96ED042B96ED063B96ED000B91
:1037E800FFF752FA00223D4BB0EE408AF0EE608AB5
:1037F800DAE90001FCF7BCFE96ED0A1B41EC140B5C
:1038080096ED0C2B96ED0E3B96ED080BFFF73CFA68
:103818000022324BB0EE409AF0EE609ADAE90001ED
:10382800FCF7A6FE96ED163B41EC140B96ED121B29
:1038380096ED142B96ED100BFFF726FAB0EE491A09
:10384800F0EE691A4CE000BF7B14AE47E17A943F72
:1038580000000000000024C000000000000028C094
:1038680000000000000000C068666666666610C05A
:103878003433333333332CC0000000000000000021
:10388800CDCCCCCCCC2C63C0CDCCCCCCCC8C62C039
:1038980000000000000036C000000000000040C02A
:1038A8003333333333332CC09A999999991938C0E3
:1038B80000000000000049C000000000000049406E
:1038C80008000020200200200000D03FA0000020B7
:1038D8000001002060010020C0010020000010400D
:1038E800B0EE402AF0EE602AB0EE480AF0EE680A20
:1038F800FEF7F6FD00226A4BDAE90001FCF738FE14
:1039080095ED021B41EC140B95ED042B95ED063B50
:1039180095ED000BFFF7B8F90022614BB0EE408A35
:10392800F0EE608ADAE90001FCF722FE95ED0A1B49
:1039380041EC140B95ED0C2B95ED0E3B95ED080B1A
:10394800FFF7A2F90022564BB0EE409AF0EE609ACB
:10395800DAE90001FCF70CFE95ED163B41EC140B7F
:1039680095ED121B95ED142B95ED100BFFF78CF9C7
:10397800B0EE491AF0EE691AB0EE402AF0EE602A6D
:10398800B0EE480AF0EE680AFEF7F6FE0022444B55
:10399800DAE90001FCF7ECFD94ED021B41EC140B95
:1039A80094ED042B94ED063B94ED000BFFF76CF9B6
:1039B80000223B4BB0EE408AF0EE608ADAE9000163
:1039C800FCF7D6FD94ED080B41EC140B94ED0A1BA3
:1039D80094ED0C2B94ED0E3BFFF756F9DAE9000154
:1039E800B0EE409AF0EE609A2D4B0022FCF7C0FD35
:1039F80094ED163B41EC140B94ED121B94ED142B33
:103A080094ED100BFFF740F9B0EE491AF0EE691A81
:103A1800B0EE402AF0EE602AB0EE480AF0EE680AEE
:103A2800FEF7EEFF1AA3D3E90023DAE90001FCF759
:103A3800EDFB19A3D3E9002304460D46FDF728F84A
:103A4800002840F0C287CAE90045DBF8002064235B
:103A580092FBF3F403FB142464B9124D12482A783C
:103A68004FF48061FDF7A8FB2B68CBF80040C3F149
:103A780001032B60BDEC048BDBF800300B480133ED
:103A8800CBF80030BDE8F84FFDF710BFAFF300806A
:103A98007B14AE47E17A943F5C8FC2F5285CEF3F18
:103AA800000010400C00002000080240D80300204D
:103AB8000022EF4B40464946FCF7CCFF002800F0B7
:103AC8008582CBA3D3E9002340464946FCF7C2FFD1
:103AD800002800F0EA809FEDC83B9FEDC92BB0EEAF
:103AE800431AF0EE631A9FEDC80BFFF715F985ED41
:103AF800000B85ED021B9FEDC60B9FEDC71B85EDE7
:103B0800042B85ED063B9FEDC62B9FEDC73BFFF7CA
:103B180003F985ED0E3B9FEDC03B85ED080B85ED68
:103B28000A1BB0EE431AF0EE631A9FEDC10B85ED48
:103B38000C2B9FEDC12BFFF7EFF885ED163B9FEDA2
:103B4800AE3B85ED100B85ED121BB0EE431AF0EE7F
:103B5800631A9FEDAB0B85ED142B9FEDB92BFFF787
:103B6800DBF887ED000B87ED021B9FEDB70B9FED90
:103B7800AA1B87ED042B87ED063B9FEDB52B9FED28
:103B8800AA3BFFF7C9F887ED0C2B87ED0E3B9FED9D
:103B9800AA2B9FEDA13B87ED080BB0EE420AF0EE91
:103BA800620A87ED0A1BB0EE431AF0EE631AFFF7BC
:103BB800B3F887ED163B9FED903B87ED100B87ED33
:103BC800121BB0EE431AF0EE631A9FED9D0B87EDC2
:103BD800142B9FEDA12BFFF79FF886ED000B86EDC8
:103BE800021B9FED990B9FED8C1B86ED042B86ED38
:103BF800063B9FED972B9FED8C3BFFF78DF886EDED
:103C08000C2B86ED0E3B9FED8C2B9FED833B86EDB9
:103C1800080BB0EE420AF0EE620A86ED0A1BB0EE1F
:103C2800431AF0EE631AFFF777F886ED163B9FED1F
:103C38007A3B86ED100B86ED121BB0EE431AF0EEC0
:103C4800631A9FED850B86ED142B9FED6F2BFFF705
:103C580063F884ED000B84ED021B9FED6D0B9FED67
:103C68006E1B84ED042B84ED063B9FED6D2B9FEDC1
:103C78006E3BFFF751F884ED080B84ED0A1B84EDC9
:103C88000C2B84ED0E3B9FED6A2B9FED753B9FED52
:103C9800761B9FED690BFFF73FF884ED100B84ED61
:103CA800121B84ED142B84ED163B0022714BDAE9CC
:103CB8000001FCF7A9FA00226F4BFCF759FC97EDBD
:103CC800021B41EC140B97ED042B97ED063B97ED87
:103CD800000BFEF7D9FF0022664BB0EE408AF0EEEB
:103CE800608ADAE90001FCF78FFA0022624BFCF7E0
:103CF8003FFC97ED0A1B41EC140B97ED0C2B97ED4D
:103D08000E3B97ED080BFEF7BFFF0022594BB0EEB4
:103D1800409AF0EE609ADAE90001FCF775FA0022A1
:103D2800554BFCF725FC97ED163B41EC140B97ED32
:103D3800121B97ED142B97ED100BFEF7A5FFB0EEB5
:103D4800491AF0EE691AB0EE402AF0EE602AB0EE99
:103D5800480AF0EE680AFEF777FA0022454BDAE9DE
:103D68000001FCF751FA0022434BFCF701FC96EDE9
:103D7800021B41EC140B96ED042B96ED063B96EDD9
:103D8800000BFEF781FF00223A4BB0EE408AF0EEBE
:103D9800608ADAE90001FCF737FA0022364BFCF7B3
:103DA800E7FB96ED0A1B41EC140B96ED0C2B96EDF8
:103DB8000E3B96ED080BFEF767FF00222D4BB0EE89
:103DC800409AF0EE609ADAE90001FCF71DFA002249
:103DD800294BFCF7CDFB96ED163B41EC140B96ED09
:103DE800121B96ED142B96ED100BFEF74DFF45E0D8
:103DF80048E17A14AE47D13F00000000000024C01B
:103E080000000000000028C000000000000000C002
:103E18009A999999991938C000000000000000008B
:103E28003333333333332CC0000000000000244008
:103E3800CDCCCCCCCC2C63C0CDCCCCCCCC8C62C083
:103E480000000000000036C03433333333332CC055
:103E580068666666666610C000000000000040C024
:103E680000000000000049C00000000000004940B8
:103E78000000E03F0000D03F00001040B0EE491ABB
:103E8800F0EE691AB0EE402AF0EE602AB0EE480A69
:103E9800F0EE680AFEF724FB00224A4BDAE900013B
:103EA800FCF7B2F90022484BFCF762FB95ED021BC8
:103EB80041EC140B95ED042B95ED063B95ED000BAD
:103EC800FEF7E2FE00223F4BB0EE408AF0EE608A39
:103ED800DAE90001FCF798F900223B4BFCF748FBB4
:103EE80095ED0A1B41EC140B95ED0C2B95ED0E3B53
:103EF80095ED080BFEF7C8FE0022324BB0EE409A53
:103F0800F0EE609ADAE90001FCF77EF900222E4B08
:103F1800FCF72EFB95ED163B41EC140B95ED121BAF
:103F280095ED142B95ED100BFEF7AEFEB0EE491A89
:103F3800F0EE691AB0EE402AF0EE602AB0EE480AB8
:103F4800F0EE680AFEF718FC00221E4BDAE90001C1
:103F5800FCF75AF900221C4BFCF70AFB94ED021BF4
:103F680041EC140B94ED042B94ED063B94ED000BFF
:103F7800FEF78AFE0022134BB0EE408AF0EE608A0C
:103F8800DAE90001FCF740F900220F4BFCF7F0FAE0
:103F980094ED080B41EC140B94ED0A1B94ED0C2BDB
:103FA80094ED0E3BFEF770FE064BB0EE409AF0EE35
:103FB800609A0022DAE90001FCF726F90022024B98
:103FC80014E500BF0000D03F000010400022F04B75
:103FD80040464946FCF73EFD002800F08182CCA30C
:103FE800D3E9002340464946FCF734FD002800F099
:103FF800EA809FEDC93B9FEDCA2BB0EE431AF0EE65
:10400800631A9FEDC90BFEF787FE84ED000B84ED64
:10401800021B9FEDC70B9FEDC81B84ED042B84ED9D
:10402800063B9FEDC72B9FEDC83BFEF775FE84ED61
:104038000E3B9FEDC53B84ED080B84ED0A1BB0EEEB
:10404800431AF0EE631A9FEDC20B84ED0C2B9FED23
:10405800C22BFEF761FE84ED163B9FEDAF3B84ED6E
:10406800100B84ED121BB0EE431AF0EE631A9FEDAD
:10407800AC0B84ED142B9FEDBA2BFEF74DFE85EDAE
:10408800000B85ED021B9FEDAA0B9FEDAB1B85ED89
:10409800042B85ED063B9FEDAA2B9FEDAB3BFEF76E
:1040A8003BFE85ED0C2B85ED0E3B9FEDAB2B9FED7D
:1040B800A63B85ED080BB0EE420AF0EE620A85EDEC
:1040C8000A1BB0EE431AF0EE631AFEF725FE85EDE3
:1040D800163B9FED913B85ED100B85ED121BB0EE65
:1040E800431AF0EE631A9FED9E0B85ED142B9FED9E
:1040F8009E2BFEF711FE87ED000B87ED021B9FED4F
:104108009C0B9FED8D1B87ED042B87ED063B9FEDE8
:104118009A2B9FED8D3BFEF7FFFD87ED0C2B87ED6E
:104128000E3B9FED8D2B9FED883B87ED080BB0EE86
:10413800420AF0EE620A87ED0A1BB0EE431AF0EE6F
:10414800631AFEF7E9FD87ED163B9FED7F3B87ED90
:10415800100B87ED121BB0EE431AF0EE631A9FEDB9
:10416800820B87ED142B9FED702BFEF7D5FD86EDA6
:10417800000B86ED021B9FED7E0B9FED6F1B86EDFE
:10418800042B86ED063B9FED7C2B9FED6F3BFEF7E6
:10419800C3FD86ED080B86ED0A1B86ED0C2B86ED1C
:1041A8000E3B9FED6B2B9FED763B9FED771B9FEDB5
:1041B8006A0BFEF7B1FD86ED100B86ED121B86ED3E
:1041C800142B86ED163B0022724BDAE90001FCF74E
:1041D8001BF80022704BFCF7CBF997ED021B41EC62
:1041E800140B97ED042B97ED063B97ED000BFEF7AC
:1041F8004BFD0022674BB0EE408AF0EE608ADAE9A8
:104208000001FCF701F80022634BFCF7B1F997EDC8
:104218000A1B41EC140B97ED0C2B97ED0E3B97ED19
:10422800080BFEF731FD00225A4BB0EE409AF0EE33
:10423800609ADAE90001FBF7E7FF0022564BFCF72A
:1042480097F997ED163B41EC140B97ED121B97ED80
:10425800142B97ED100BFEF717FDB0EE491AF0EE90
:10426800691AB0EE402AF0EE602AB0EE480AF0EE85
:10427800680AFDF7E9FF0022464BDAE90001FBF77F
:10428800C3FF0022444BFCF773F996ED021B41EC87
:10429800140B96ED042B96ED063B96ED000BFEF7FE
:1042A800F3FC00223B4BB0EE408AF0EE608ADAE97C
:1042B8000001FBF7A9FF0022374BFCF759F996EDEF
:1042C8000A1B41EC140B96ED0C2B96ED0E3B96ED6C
:1042D800080BFEF7D9FC00222E4BB0EE409AF0EE08
:1042E800609ADAE90001FBF78FFF00222A4BFCF7FE
:1042F8003FF996ED163B41EC140B96ED121B96ED2B
:10430800142B96ED100BFEF7BFFC47E0AFF30080CF
:10431800A4703D0AD7A3E03F00000000000024C0BD
:1043280000000000000028C000000000000000C0DD
:104338003333333333332CC00000000000002440F3
:1043480066666666666610C0000000000000000031
:10435800CDCCCCCCCC2C63C0CDCCCCCCCC8C62C05E
:1043680000000000000036C000000000000040C04F
:1043780068666666666610C0989999999999174013
:1043880000000000000049C0000000000000494093
:104398000000E83F0000E03F00001040B0EE491A7E
:1043A800F0EE691AB0EE402AF0EE602AB0EE480A44
:1043B800F0EE680AFEF794F80022474BDAE90001AC
:1043C800FBF722FF0022454BFCF7D2F895ED021BC4
:1043D80041EC140B95ED042B95ED063B95ED000B88
:1043E800FEF752FC00223C4BB0EE408AF0EE608AA9
:1043F800DAE90001FBF708FF0022384BFCF7B8F8B0
:1044080095ED0A1B41EC140B95ED0C2B95ED0E3B2D
:1044180095ED080BFEF738FC00222F4BB0EE409AC2
:10442800F0EE609ADAE90001FBF7EEFE00222B4B72
:10443800FCF79EF895ED163B41EC140B95ED121B1D
:1044480095ED142B95ED100BFEF71EFCB0EE491AF6
:10445800F0EE691AB0EE402AF0EE602AB0EE480A93
:10446800F0EE680AFEF788F900221B4BDAE9000132
:10447800FBF7CAFE0022194BFCF77AF894ED021BF1
:1044880041EC140B94ED042B94ED063B94ED000BDA
:10449800FEF7FAFB0022104BB0EE408AF0EE608A7D
:1044A800DAE90001FBF7B0FE00220C4BFCF760F8DC
:1044B80094ED080B41EC140B94ED0A1B94ED0C2BB6
:1044C80094ED0E3BFEF7E0FB0022B0EE409AF0EED2
:1044D800609A014B6EE500BF0000E03F000010400D
:1044E8000FF23443D3E9002340464946FCF7B2FAB9
:1044F800002800F0E8809FEDEA3B9FEDEB2BB0EE43
:10450800431AF0EE631A9FEDEA0BFEF705FC86ED01
:10451800000B86ED021B9FEDE80B9FEDE91B86ED76
:10452800042B86ED063B9FEDE82B9FEDDD3BFEF768
:10453800F3FB86ED0E3B9FEDE23B86ED080B86ED27
:104548000A1BB0EE431AF0EE631A9FEDE10B86EDFD
:104558000C2B9FEDE12BFEF7DFFB86ED163B9FED65
:10456800D03B86ED100B86ED121BB0EE431AF0EE31
:10457800631A9FEDCD0B86ED142B9FEDD92BFEF71B
:10458800CBFB84ED000B84ED021B9FEDD70B9FED59
:10459800CC1B84ED042B84ED063B9FEDD52B9FEDC2
:1045A800C03BFEF7B9FB84ED0C2B84ED0E3B9FED71
:1045B800CA2B9FEDC33B84ED080BB0EE420AF0EE28
:1045C800620A84ED0A1BB0EE431AF0EE631AFEF796
:1045D800A3FB84ED163B9FEDB23B84ED100B84EDFD
:1045E800121BB0EE431AF0EE631A9FEDBD0B84ED7B
:1045F800142B9FEDC12BFEF78FFB85ED000B85ED8E
:10460800021B9FEDB90B9FEDAE1B85ED042B85EDCD
:10461800063B9FEDB72B9FEDA23BFEF77DFB85ED9B
:104628000C2B85ED0E3B9FEDAC2B9FEDA53B85ED4F
:10463800080BB0EE420AF0EE620A85ED0A1BB0EEF6
:10464800431AF0EE631AFEF767FB85ED100B85ED54
:10465800121B9FEDA90B9FED9A1B85ED142B85ED81
:10466800163B9FED932B9FED8E3BFEF755FB87ED99
:10467800000B87ED021B9FED900B9FED911B87EDC3
:10468800042B87ED063B9FED902B9FED853BFEF7B6
:1046980043FB87ED080B87ED0A1B87ED0C2B87ED95
:1046A8000E3B9FED8B2B9FED963B9FED971B9FED50
:1046B8008A0BFEF731FB87ED100B87ED121B87ED98
:1046C800142B87ED163B0022914BDAE90001FBF72A
:1046D8009BFD00228F4BFBF74BFF97ED021B41EC34
:1046E800140B97ED042B97ED063B97ED000BFEF7A7
:1046F800CBFA0022864BB0EE408AF0EE608ADAE907
:104708000001FBF781FD0022824BFBF731FF97ED9B
:104718000A1B41EC140B97ED0C2B97ED0E3B97ED14
:10472800080BFEF7B1FA0022794BB0EE409AF0EE92
:10473800609ADAE90001FBF767FD0022754BFBF789
:1047480017FF97ED163B41EC140B97ED121B97EDF5
:10475800142B97ED100BFEF797FAB0EE491AF0EE0E
:10476800691AB0EE402AF0EE602AB0EE480AF0EE80
:10477800680AFDF769FD0022654BDAE90001FBF7DD
:1047880043FD0022634BFBF7F3FE96ED021B41EC61
:10479800140B96ED042B96ED063B96ED000BFEF7F9
:1047A80073FA00225A4BB0EE408AF0EE608ADAE9DA
:1047B8000001FBF729FD0022564BFBF7D9FE96EDC9
:1047C8000A1B41EC140B96ED0C2B96ED0E3B96ED67
:1047D800080BFEF759FA00224D4BB0EE409AF0EE66
:1047E800609ADAE90001FBF70FFD0022494BFBF75D
:1047F800BFFE96ED163B41EC140B96ED121B96EDA1
:10480800142B96ED100BFEF73FFAB0EE491AF0EEB6
:10481800691AB0EE402AF0EE602AB0EE480AF0EECF
:10482800680AFDF75DFE0022394BDAE90001FBF763
:10483800EBFC0022374BFBF79BFE95ED021B41EC8E
:10484800140B95ED042B95ED063B95ED000BFEF74B
:104858001BFA00222E4BB0EE408AF0EE608ADAE9AD
:104868000001FBF7D1FC00222A4BFBF781FE95EDF6
:104878000A1B41EC140B95ED0C2B95ED0E3B95EDB9
:10488800080BFEF701FA0022214BB0EE409AF0EE39
:10489800609ADAE90001FBF7B7FC002240E000BFAC
:1048A80000000000000024C000000000000028C034
:1048B80000000000000000C0989999999999174044
:1048C800000000000000000068666666666610C0AA
:1048D800CDCCCCCCCC2C63C0CDCCCCCCCC8C62C0D9
:1048E80000000000000036C066666666666610C096
:1048F8003333333333332CC000000000000040C092
:1049080000000000000049C000000000000049400D
:104918000000E83F00001040A4703D0AD7A3E83F1C
:104928002D4BFBF725FE95ED163B41EC140B95ED51
:10493800121B95ED142B95ED100BFEF7A5F9B0EEB3
:10494800491AF0EE691AB0EE402AF0EE602AB0EE8D
:10495800480AF0EE680AFDF70FFF00221F4BDAE95C
:104968000001FBF751FC00221B4BFBF701FE94ED05
:10497800021B41EC140B94ED042B94ED063B94EDD3
:10498800000BFEF781F90022144BB0EE408AF0EEDE
:10499800608ADAE90001FBF737FC00220E4BFBF7CF
:1049A800E7FD94ED080B41EC140B94ED0A1B94ED14
:1049B8000C2B94ED0E3BFEF767F90022B0EE409AFF
:1049C800F0EE609A054BFFF7F5BA00220023CAE91A
:1049D8000023FFF73AB800BF000010400000E83F8E
:1049E8000F49D1F8883043F47003C1F888300D4B73
:1049F8001A68002042F001021A6098601A6822F0D2
:104A0800847222F480321A60074A5A601A6822F4C3
:104A180080221A60D8604FF000638B60704700BF37
:104A280000ED00E00038024010300024DFF834D0F8
:104A3800002103E00C4B5B58435004310B480C4BEE
:104A480042189A42F6D30B4A02E0002342F8043B8C
:104A5800094B9A42F9D3FFF7C3FF00F011F8FEF7AC
:104A680011FA704700000220786500080000002055
:104A78007C0000208000002014040020FEE70000D5
:104A880070B50D4E0D4CA41BA4100025A54209D1EC
:104A98000B4E0C4C01F03AFCA41BA4100025A542B7
:104AA80005D170BD56F8253098470135EEE756F820
:104AB800253098470135F2E77065000870650008F1
:104AC80070650008746500081FB551EC100B1E4A8C
:104AD80021F00043934206DC9FED191B00F05CFCBB
:104AE80051EC100B07E0194A934209DD10EE102A29
:104AF8000B46FBF789FB41EC100B05B05DF804FB96
:104B0800684600F0A5F900F0030001289DED021B9E
:104B18009DED000B07D002280ED00028DED0012022
:104B280001F072F8DCE701F06FF853EC102B10EE8F
:104B3800100A03F10041DEE700F02EFCF5E700BFA4
:104B48000000000000000000FB21E93FFFFFEF7FAD
:104B58001FB551EC100B204A21F00043934207DCAB
:104B68009FED1B1B002001F04FF851EC100B07E0E4
:104B78001A4A934209DD10EE102A0B46FBF744FB54
:104B880041EC100B05B05DF804FB684600F060F9D5
:104B980000F0030001289DED021B9DED000B04D0E1
:104BA800022805D070B90120DDE700F0F5FBDCE74D
:104BB800012001F029F853EC102B10EE100A03F134
:104BC8000041DDE700F0E8FBF5E700BFAFF3008048
:104BD8000000000000000000FB21E93FFFFFEF7F1D
:104BE80000F05AB82DE9F0432DED028B8BB055EC4F
:104BF800104B00F01FFB264BB0EE408AF0EE608AA7
:104C080093F90060731C2AD022462B462046294679
:104C1800FBF748FF074610BB4FF000084FF00009AC
:104C280042464B4620462946FBF714FFB8B10123FC
:104C38000093184B01930897CDE90445CDE9024547
:104C4800B6B9CDE90689684601F0CEFAD0B1089B1D
:104C58001BB101F055FB089B03609DED068BB0EE80
:104C6800480AF0EE680A0BB0BDEC028BBDE8F08391
:104C780042464B4640464946FBF7A4FD022ECDE985
:104C88000601E0D101F03CFB21230360DFE700BF10
:104C980014000020486300082DE9F84357EC116B15
:104CA800734227F000423343DFF89CC151EC100BEC
:104CB80042EAD373634511EE108A10EE109A8E46BD
:104CC80007D8444221F00043044343EAD4746445BE
:104CD80007D932463B46FBF799FA41EC100BBDE881
:104CE800F88307F1404404F58014344303D1BDE848
:104CF800F84301F045B8BC1704F0020459EA030967
:104D080044EAD17407D1022C30D0032CE5D13CA160
:104D1800D1E90001E1E758EA020806D1BEF1000F27
:104D28006ADA39A1D1E90001D7E7624522D1934275
:104D380011D1022C07D0032C09D0012C56D134A153
:104D4800D1E90001C9E734A1D1E90001C5E734A1DF
:104D5800D1E90001C1E7022C08D0032CD7D0012CDF
:104D68004FF0000046D14FF00041B6E72EA1D1E93F
:104D78000001B2E76345D1D09B1A1B153C2B1EDC02
:104D8800002F01DA3C331EDB32463B46FBF71AFDA7
:104D980041EC100B01F09CF900F0F2FF51EC100B04
:104DA800012C13D0022C14D0002C96D020A3D3E9C8
:104DB8000023FBF729FA1CA3D3E9002313E01EA163
:104DC800D1E90001ECE700200021E9E701F1004109
:104DD80083E717A3D3E90023FBF716FA02460B462D
:104DE80011A1D1E90001FBF70FFA76E714A1D1E987
:104DF800000172E7002170E70FA1D1E900016CE71B
:104E0800182D4454FB2109C0182D4454FB21F9BF27
:104E1800182D4454FB21E9BFD221337F7CD90240AD
:104E2800D221337F7CD902C0182D4454FB2109407C
:104E3800075C143326A6A13C182D4454FB21F93FE6
:104E4800182D4454FB21E93F0000F07F00000000CA
:104E58002DE9F04F57EC106BC34B8DB027F000488D
:104E680098450446049707DC0022002384ED000BD4
:104E7800C0E90223002527E0BC4B984575DC049B5C
:104E8800BB4D002B10EE100AA9A3D3E90023394625
:104E980036DDFBF7B9F9A84506460F4618D0A6A394
:104EA800D3E90023FBF7B0F902460B46C4E9002317
:104EB80030463946FBF7A8F99FA3D3E90023FBF74F
:104EC800A3F9C4E90201012528460DB0BDE8F08F19
:104ED8009BA3D3E90023FBF797F99BA3D3E900230E
:104EE80006460F46FBF790F902460B46C4E9002335
:104EF80030463946FBF788F993A3D3E90023DEE768
:104F0800FBF784F9A84506460F4616D08AA3D3E9CD
:104F18000023FBF77BF902460B46C4E90023304621
:104F28003946FBF771F984A3D3E90023FBF76EF93F
:104F38004FF0FF35C4E90201C6E781A3D3E9002396
:104F4800FBF764F980A3D3E9002306460F46FBF775
:104F58005DF902460B46C4E9002330463946FBF7A3
:104F680053F979A3D3E90023E0E7824B984500F38E
:104F7800D08001F0ADF857EC106B10EE100A74A356
:104F8800D3E900233946FBF7F3FA00227A4BFBF703
:104F98003DF9FBF79DFD0546FBF784FA64A3D3E9C9
:104FA8000023CDE90201FBF7E3FA02460B4630463F
:104FB8003946FBF729F960A3D3E9002382468B46DB
:104FC800DDE90201FBF7D4FA1F2D06460F462ADC5D
:104FD8006A1E6A4B53F82230984524D032463B4625
:104FE80050465946FBF710F9C4E90001D4E9008995
:104FF800504642464B465946FBF706F93B46324671
:10500800FBF702F9049B002BC4E90201BFF65CAF71
:1050180009F100436360C4F80080A06001F1004317
:10502800E3606D4250E732463B4650465946FBF72F
:10503800EBF84FEA2852C1F30A53D31A102BC4E9EC
:1050480000010592D2DD3EA3D3E90023DDE9020188
:10505800FBF78EFA06460F4602460B46504659465F
:10506800FBF7D2F802460B46804689465046594619
:10507800FBF7CAF832463B46FBF7C6F832A3D3E93A
:10508800002306460F46DDE90201FBF771FA3246B6
:105098003B46FBF7B9F802460B4606460F46404624
:1050A8004946FBF7B1F8059AC1F30A53D31A312BD5
:1050B800C4E900012ADD28A3D3E90023DDE90201C0
:1050C800FBF756FA06460F4602460B464046494647
:1050D800FBF79AF802460B4682468B4640464946FD
:1050E800FBF792F832463B46FBF78EF81CA3D3E950
:1050F800002306460F46DDE90201FBF739FA32467E
:105108003B46FBF781F806460F4667E7C246CB46A3
:105118006CE71B4B984535DD10EE102A3B463046B0
:105128003946FBF771F8C4E90201C4E90001A1E6B8
:1051380000004054FB21F93F3163621A61B4D03D4D
:105148000000601A61B4D03D7370032E8A19A33B26
:1051580083C8C96D305FE43F0000002E8A19A33B65
:10516800C14920259A837B39FB21E93F7BD902403D
:10517800FB21F93FFB2139410000E03F5063000863
:10518800FFFFEF7F4FEA2855A5F21645A8EB05511A
:1051980030460F46FBF79CFCFBF784F902460B46AA
:1051A80030463946CDE90623FBF72EF800221F4B7F
:1051B800FBF7DEF90F460646FBF78AFCFBF772F9A8
:1051C80002460B4630463946CDE90823FBF71CF862
:1051D8000022164BFBF7CCF9CDE90A010DF1300995
:1051E8004FF003080026002732463B4679E90201C2
:1051F80008F1FF3AFBF724FCB0B90D4B01930223E9
:1052080000932A464346214606A800F0ADF9049BC0
:10521800002B0546BFF658AE636803F10043636090
:10522800E36803F10043FBE6D046DDE70000704188
:10523800D06300082DE9F04155EC104B544EAE43B5
:1052480010EE100A2B462A46214613D110EE102ADA
:105258002B4610EE100A2946FBF78AF902460B4640
:1052680020462946FAF7D2FF04460D4645EC104B76
:10527800BDE8F081002D10DC25F000463043F5D064
:105288005DB110EE102A2B4620462946FAF7BCFFDE
:1052980002460B46FBF796FAE6E71B150CD1002AE7
:1052A8006DD00020D6026ED5441E1B1BC0F1200411
:1052B80021FA04F422438140A3F2FF33C2F313021C
:1052C800DD0742F4801242BF520002EBD17249005E
:1052D8005810002502EBD1731A44490016232C46B6
:1052E8004FF40016A7199742DEBFD21BBC19AD199F
:1052F8005200013B02EBD1724FEA56064FEA4101D8
:10530800F0D14FF0200E9C464FF00046A24206EB2B
:105318000C0702DC12D18F4210D8002F07EB060CC5
:1053280034DABCF1000F31DB04F10108121B8F42A3
:1053380088BF02F1FF32C91B3344444602EBD177E0
:10534800BEF1010E3A444FEA41014FEA5606DDD15B
:105358000A4306D05C1C13BF01330135734623F0A2
:1053680001036A105B08E90702F17F5202F5001297
:1053780048BF43F0004302EB00551C4676E7CA0AD3
:10538800153B49058BE7520001308BE7A046CDE776
:105398000000F07F000000002DE9F04F59EC108B61
:1053A80029F0004785B0B7F1795F8DED001B07DA6A
:1053B80010EE100A4946FBF78BFB002800F0AA8084
:1053C80042464B4640464946FBF7D2F859A3D3E933
:1053D800002304460D46FBF7CBF858A3D3E9002376
:1053E800FAF714FF22462B46FBF7C2F855A3D3E978
:1053F8000023FAF709FF22462B46FBF7B9F853A317
:10540800D3E90023FAF702FF22462B46FBF7B0F850
:1054180050A3D3E90023FAF7F7FE22462B46FBF701
:10542800A7F84EA3D3E90023FAF7F0FE2B4622464D
:10543800FBF79EF83A4B9F4282468B462CDC0022B3
:10544800384B20462946FBF793F8524606460F4646
:105458005B4620462946FBF78BF8DDE90023044626
:105468000D4640464946FBF783F802460B46204660
:105478002946FAF7C9FE02460B4630463946FAF77E
:10548800C3FE0B46284902460020FAF7BDFE41EC50
:10549800100B05B0BDE8F08F244B23499F42D7BFBE
:1054A800A7F50013224F00221646D4BF1F46002638
:1054B80032463B460020FAF7A7FE0022CDE902015A
:1054C800184B20462946FBF753F832463B46FAF775
:1054D8009BFE524606460F465B4620462946FBF78A
:1054E80047F8DDE9002304460D4640464946FBF7E8
:1054F8003FF802460B4620462946FAF785FE024643
:105508000B4630463946FAF77FFE02460B46DDE980
:105518000201BAE700200449B9E700BFAFF30080F1
:105528003233D33F0000E03F0000F03F0000E93F86
:105538000000D23FD43888BEE9FAA8BDC4B1B4BDD2
:105548009EEE213EAD529C804F7E923E9015CB1927
:10555800A001FA3E7751C1166CC1563F4C555555BE
:105568005555A53F000000002DE9F04F2DED028BA9
:10557800ADF5197DD41E06930291C34BA4990990E9
:1055880053F821300093069B013B0493182394FBA6
:10559800F3F46FF0170324EAE47404FB033303EB1A
:1055A800020A009B049A9FEDB48B03EB0208A59BAB
:1055B800A71A20AE03EB87090025454513DD9FEDAB
:1055C800AE8B0DF5E07B0026009B9E4232DC099BEA
:1055D8000393069B9D1920AB03EBC503089359EC75
:1055E800188B00271FE0EF4207D459F82500FAF777
:1055F80059FFE6E802010135DFE751EC180BF8E73F
:105608000899039D71E902230891F5E802010395C1
:10561800FAF7AEFF02460B4640464946FAF7F6FD52
:10562800013780468946049B9F42E9DDEBE8028901
:105638000136C9E7009B009F0CAA02EB83030B937A
:10564800A59B03EB84030A9398AB07F1005B03EB7C
:10565800C7030BF1FF3B53E928894FEACB030893B3
:10566800089A98AB1344A3F1980B0026BB1B002B98
:1056780077DC49EC108B504600F0BAFD55EC104B26
:1056880000224FF07F5310EE100A2946FAF770FFF8
:1056980041EC100B00F024FD002251EC100B7B4B69
:1056A800FAF766FF02460B4620462946FAF7ACFD94
:1056B8000D460446FBF70CFA0390FAF7F3FE024690
:1056C8000B4620462946FAF79FFDBAF1000F80469F
:1056D80089466BDD7A1E0CABCAF1180153F822001B
:1056E800039C40FA01F31C448B40C01A0CAB039492
:1056F80043F82200CAF1170340FA03FBBBF1000F7D
:1057080062DD039B00220133039314466FF07F414F
:10571800974200F38980BAF1000F07DDBAF1010F53
:1057280000F09680BAF1020F00F09C80BBF1020FE6
:105738004AD142464B4600205549FAF765FD804656
:105748008946002C40D050469FED4D0B00F050FD8F
:105758004046494653EC102BFAF756FD80468946D9
:1057680032E000224B4B40464946FAF701FFFBF76F
:10577800AFF9FAF797FE0022474B04460D46FAF7B1
:10578800F7FE02460B4640464946FAF73DFDFBF751
:105798009FF90CAB294643F826007BE902232046F3
:1057A800FAF734FD0136804689465FE706D17B1E4D
:1057B8000CAA52F823004FEAE05B9FE70022374B20
:1057C800FBF75CF968BB8346002200234046494644
:1057D800FBF736F9002800F0C1807C1E2346002222
:1057E80000998B425CDA002A40F08B8001246FF02C
:1057F800030202FB04F30B99CB58002B56D0089BED
:1058080098AA1344A3F1900B069BDD1920AB03EB78
:10581800C505E3197E1C0393039B9E4248DD1F4682
:1058280012E74FF0020B6CE70CAB53F822304CB97F
:105838002BB10CA8C3F1807340F822300123013248
:105848001C4665E70CA8CB1A40F822302346F6E739
:105858007A1E0CAB53F82230C3F316030CA941F897
:10586800223063E77A1E0CAB53F82230C3F31503DA
:10587800F4E700BFAFF30080000000000000000064
:10588800000000000000F03F1865000800002040FC
:105898000000F03F0000703E000070410000E03F53
:1058A8000CA951F82310013B0A4399E70134A0E7FA
:1058B8000A9B53F82600FAF7F5FDE5E80201099B73
:1058C80008951C4600274FF000084FF00009049B7C
:1058D8009F4203DDEBE8028901369DE7089971E9EB
:1058E80002230891F4E80201FAF742FE02460B4649
:1058F80040464946FAF78AFC013780468946E6E77A
:10590800013C0CABAAF1180A53F82430002BF7D04D
:1059180050469FEDB50B00F06BFCE50098AB03EB30
:10592800050957EC106BA9F19809A046B8F1000FCA
:105938004DDA9FEDAF8B0DF5907A0023049357460F
:10594800049BB4EB030976D4AB4B1E4670AB03EB58
:10595800C9098DED068B4FF000085EE0CAF1000022
:1059680049EC108B00F044FC55EC104B0022A34B83
:1059780010EE100A2946FBF781F8F8B10022A04B77
:1059880020462946FAF7F4FDFBF7A2F80646FAF78F
:1059980089FD0022994BFAF7EBFD0B460246294692
:1059A8002046FAF731FCFBF793F87C1C0CAB0AF1A4
:1059B800180A43F8270043F82460A9E72046294637
:1059C800FBF786F80CAB3C4643F82700A0E70CAB86
:1059D80053F82800FAF766FD32463B46FAF7C8FD49
:1059E800002269E90201864B30463946FAF7C0FDC4
:1059F80008F1FF3806460F4698E7F9E80223F6E86B
:105A08000201FAF7B5FD02460B46DDE90601FAF791
:105A1800FDFBCDE9060108F10108009B984502DC71
:105A2800049B9845E9DD049B9DED067B0133AAECB8
:105A3800027B049384E7A49B032B5DD8DFE803F083
:105A48004B26260298AB1D44A5F59C752E46A2460A
:105A5800BAF1000F6EDC2E46A246BAF1010F00F330
:105A68008A8000200021012C00F3A680BBF1000FE2
:105A780040F0A880DDE94823029CC4E90023DDE961
:105A88004A23C4E90401C4E9022335E0083548ABD8
:105A98001D44264600200021002E3CDABBF1000FF1
:105AA8003FD0024601F10043029DC5E900230246AA
:105AB8000B46DDE94801FAF7A7FB4AAE0125AC42DF
:105AC80032DABBF1000F02D001F100431946029B04
